{
  "abi": [
    {
      "inputs": [
        {
          "internalType": "address",
          "name": "_issuerRegistryAddress",
          "type": "address"
        }
      ],
      "stateMutability": "nonpayable",
      "type": "constructor"
    },
    {
      "anonymous": false,
      "inputs": [
        {
          "indexed": true,
          "internalType": "address",
          "name": "issuer",
          "type": "address"
        },
        {
          "indexed": false,
          "internalType": "uint256",
          "name": "count",
          "type": "uint256"
        },
        {
          "indexed": false,
          "internalType": "uint256",
          "name": "timestamp",
          "type": "uint256"
        }
      ],
      "name": "BatchCertificatesIssued",
      "type": "event"
    },
    {
      "anonymous": false,
      "inputs": [
        {
          "indexed": true,
          "internalType": "bytes32",
          "name": "certificateHash",
          "type": "bytes32"
        },
        {
          "indexed": true,
          "internalType": "address",
          "name": "issuer",
          "type": "address"
        },
        {
          "indexed": true,
          "internalType": "address",
          "name": "recipient",
          "type": "address"
        },
        {
          "indexed": false,
          "internalType": "uint256",
          "name": "timestamp",
          "type": "uint256"
        }
      ],
      "name": "CertificateIssued",
      "type": "event"
    },
    {
      "anonymous": false,
      "inputs": [
        {
          "indexed": true,
          "internalType": "bytes32",
          "name": "certificateHash",
          "type": "bytes32"
        },
        {
          "indexed": true,
          "internalType": "address",
          "name": "issuer",
          "type": "address"
        },
        {
          "indexed": false,
          "internalType": "uint256",
          "name": "timestamp",
          "type": "uint256"
        }
      ],
      "name": "CertificateRevoked",
      "type": "event"
    },
    {
      "inputs": [
        {
          "internalType": "bytes32[]",
          "name": "_certificateHashes",
          "type": "bytes32[]"
        },
        {
          "internalType": "address[]",
          "name": "_recipientAddresses",
          "type": "address[]"
        }
      ],
      "name": "batchIssueCertificates",
      "outputs": [],
      "stateMutability": "nonpayable",
      "type": "function"
    },
    {
      "inputs": [
        {
          "internalType": "bytes32",
          "name": "_certificateHash",
          "type": "bytes32"
        }
      ],
      "name": "getCertificateDetails",
      "outputs": [
        {
          "internalType": "bytes32",
          "name": "certificateHash",
          "type": "bytes32"
        },
        {
          "internalType": "address",
          "name": "issuer",
          "type": "address"
        },
        {
          "internalType": "address",
          "name": "recipient",
          "type": "address"
        },
        {
          "internalType": "uint256",
          "name": "issuanceTime",
          "type": "uint256"
        },
        {
          "internalType": "bool",
          "name": "isRevoked",
          "type": "bool"
        },
        {
          "internalType": "uint256",
          "name": "revocationTime",
          "type": "uint256"
        }
      ],
      "stateMutability": "view",
      "type": "function"
    },
    {
      "inputs": [
        {
          "internalType": "address",
          "name": "_recipientAddress",
          "type": "address"
        },
        {
          "internalType": "uint256",
          "name": "_start",
          "type": "uint256"
        },
        {
          "internalType": "uint256",
          "name": "_limit",
          "type": "uint256"
        }
      ],
      "name": "getCertificatesForRecipient",
      "outputs": [
        {
          "internalType": "bytes32[]",
          "name": "hashes",
          "type": "bytes32[]"
        },
        {
          "internalType": "bool",
          "name": "hasMore",
          "type": "bool"
        }
      ],
      "stateMutability": "view",
      "type": "function"
    },
    {
      "inputs": [],
      "name": "getContractStats",
      "outputs": [
        {
          "internalType": "uint256",
          "name": "totalCertificates",
          "type": "uint256"
        },
        {
          "internalType": "uint256",
          "name": "totalRevoked",
          "type": "uint256"
        }
      ],
      "stateMutability": "view",
      "type": "function"
    },
    {
      "inputs": [],
      "name": "getTotalCertificates",
      "outputs": [
        {
          "internalType": "uint256",
          "name": "",
          "type": "uint256"
        }
      ],
      "stateMutability": "view",
      "type": "function"
    },
    {
      "inputs": [
        {
          "internalType": "bytes32",
          "name": "_certificateHash",
          "type": "bytes32"
        }
      ],
      "name": "isCertificateValid",
      "outputs": [
        {
          "internalType": "bool",
          "name": "",
          "type": "bool"
        }
      ],
      "stateMutability": "view",
      "type": "function"
    },
    {
      "inputs": [
        {
          "internalType": "bytes32",
          "name": "_certificateHash",
          "type": "bytes32"
        },
        {
          "internalType": "address",
          "name": "_recipientAddress",
          "type": "address"
        }
      ],
      "name": "issueCertificate",
      "outputs": [],
      "stateMutability": "nonpayable",
      "type": "function"
    },
    {
      "inputs": [],
      "name": "issuerRegistry",
      "outputs": [
        {
          "internalType": "contract IIssuerRegistry",
          "name": "",
          "type": "address"
        }
      ],
      "stateMutability": "view",
      "type": "function"
    },
    {
      "inputs": [
        {
          "internalType": "bytes32",
          "name": "_certificateHash",
          "type": "bytes32"
        }
      ],
      "name": "revokeCertificate",
      "outputs": [],
      "stateMutability": "nonpayable",
      "type": "function"
    },
    {
      "inputs": [
        {
          "internalType": "bytes32",
          "name": "_certificateHash",
          "type": "bytes32"
        }
      ],
      "name": "verifyCertificate",
      "outputs": [
        {
          "internalType": "bool",
          "name": "isValid",
          "type": "bool"
        },
        {
          "internalType": "address",
          "name": "issuer",
          "type": "address"
        },
        {
          "internalType": "address",
          "name": "recipient",
          "type": "address"
        },
        {
          "internalType": "uint256",
          "name": "issuanceTime",
          "type": "uint256"
        },
        {
          "internalType": "bool",
          "name": "isRevoked",
          "type": "bool"
        },
        {
          "internalType": "string",
          "name": "issuerName",
          "type": "string"
        }
      ],
      "stateMutability": "view",
      "type": "function"
    }
  ],
  "bytecode": "608060405234801561001057600080fd5b5060405161189e38038061189e83398101604081905261002f916100cc565b60016000556001600160a01b0381166100a75760405162461bcd60e51b815260206004820152603060248201527f436572746966696361746553746f72653a20496e76616c69642049737375657260448201526f5265676973747279206164647265737360801b606482015260840160405180910390fd5b600180546001600160a01b0319166001600160a01b03929092169190911790556100fc565b6000602082840312156100de57600080fd5b81516001600160a01b03811681146100f557600080fd5b9392505050565b6117938061010b6000396000f3fe608060405234801561001057600080fd5b506004361061009e5760003560e01c8063ac15f0ac11610066578063ac15f0ac14610146578063b1894b0b14610194578063bc153c07146101b5578063c6cbc52a146101c8578063dfe6b5d6146101db57600080fd5b806305714099146100a35780632196581b146100cb5780637843bb79146100e0578063850c1768146100f65780638bfc18511461011b575b600080fd5b6100b66100b136600461132e565b6101f8565b60405190151581526020015b60405180910390f35b6100de6100d9366004611393565b610230565b005b6100e86107c0565b6040519081526020016100c2565b61010961010436600461132e565b6107d0565b6040516100c296959493929190611423565b60015461012e906001600160a01b031681565b6040516001600160a01b0390911681526020016100c2565b61015961015436600461132e565b61099b565b604080519687526001600160a01b039586166020880152939094169285019290925260608401521515608083015260a082015260c0016100c2565b6101a76101a23660046114a5565b610a52565b6040516100c29291906114d8565b6100de6101c3366004611523565b610c0e565b6100de6101d636600461132e565b611091565b6101e36112c0565b604080519283526020830191909152016100c2565b60008181526004602052604081205460ff1661021657506000919050565b5060009081526003602052604090206004015460ff161590565b600154604051632d33d7d560e01b81523360048201526001600160a01b0390911690632d33d7d590602401602060405180830381865afa158015610278573d6000803e3d6000fd5b505050506040513d601f19601f8201168201806040525081019061029c919061154f565b6102c15760405162461bcd60e51b81526004016102b890611578565b60405180910390fd5b6102c96112d5565b8281146103285760405162461bcd60e51b815260206004820152602760248201527f436572746966696361746553746f72653a204172726179206c656e677468206d6044820152660d2e6dac2e8c6d60cb1b60648201526084016102b8565b826103755760405162461bcd60e51b815260206004820152601e60248201527f436572746966696361746553746f72653a20456d70747920617272617973000060448201526064016102b8565b60648311156103da5760405162461bcd60e51b815260206004820152602b60248201527f436572746966696361746553746f72653a20426174636820746f6f206c61726760448201526a6520286d6178203130302960a81b60648201526084016102b8565b60005b838110156106f95760008585838181106103f9576103f96115c2565b9050602002013590506000848484818110610416576104166115c2565b905060200201602081019061042b91906115d8565b90508161048a5760405162461bcd60e51b815260206004820152602760248201527f436572746966696361746553746f72653a20496e76616c6964206861736820696044820152660dc40c4c2e8c6d60cb1b60648201526084016102b8565b6001600160a01b0381166104f35760405162461bcd60e51b815260206004820152602a60248201527f436572746966696361746553746f72653a20496e76616c6964206164647265736044820152690e640d2dc40c4c2e8c6d60b31b60648201526084016102b8565b60008281526004602052604090205460ff161561056d5760405162461bcd60e51b815260206004820152603260248201527f436572746966696361746553746f72653a204475706c696361746520636572746044820152710d2ccd2c6c2e8d2dedc40d2dc40c4c2e8c6d60731b60648201526084016102b8565b6040805160c0810182528381523360208083018281526001600160a01b03868116858701818152426060880190815260006080890181815260a08a018281528d83526003808a528c84209b518c55975160018c81018054928a166001600160a01b0319938416179055955160028d01805491909916911617909655915195890195909555516004808901805492151560ff1993841617905593516005988901559285528784208054909316811790925580835285845286832080548084018255818552858520018a905594835260068452958220805480830182559083528383200188905594905291909152546106649190611609565b6001600160a01b0382166000908152600760209081526040808320868452909152902055610696600280546001019055565b806001600160a01b0316336001600160a01b0316837f8a9f2fdd359409354808bbba510d19f4d4facf7f77d5802fc3326db79a730299426040516106dc91815260200190565b60405180910390a4505080806106f190611622565b9150506103dd565b5060005b838110156107755760015460405163f466fe1360e01b81523360048201526001600160a01b039091169063f466fe1390602401600060405180830381600087803b15801561074a57600080fd5b505af115801561075e573d6000803e3d6000fd5b50505050808061076d90611622565b9150506106fd565b506040805184815242602082015233917f95660b7ece60ca88dab417df4fe732323bc6e694b2475e306c44b539e863165d910160405180910390a26107ba6001600055565b50505050565b60006107cb60025490565b905090565b600080808080606086806108265760405162461bcd60e51b815260206004820152601e60248201527f436572746966696361746553746f72653a20496e76616c69642068617368000060448201526064016102b8565b60008881526004602052604090205460ff1661086557600080600080600060405180602001604052806000815250965096509650965096509650610991565b6000888152600360208181526040808420815160c081018352815481526001808301546001600160a01b03908116838701908152600285015482168487015296840154606084015260048085015460ff161515608085015260059094015460a08401528451958601855296855254945192516303f6189560e11b815292861691830191909152939192909116906307ec312a90602401600060405180830381865afa92505050801561093957506040513d6000823e601f3d908101601f191682016040526109369190810190611651565b60015b610968575060408051808201909152600e81526d2ab735b737bbb71024b9b9bab2b960911b602082015261096b565b90505b600182602001518360400151846060015185608001518598509850985098509850985050505b5091939550919395565b60008181526004602052604081205481908190819081908190879060ff166109d55760405162461bcd60e51b81526004016102b8906116fe565b5050506000948552505060036020818152604094859020855160c081018752815480825260018301546001600160a01b039081169483018590526002840154169782018890529382015460608201819052600483015460ff1615156080830181905260059093015460a09092018290529397929695509293509190565b60606000846001600160a01b038116610aad5760405162461bcd60e51b815260206004820152601c60248201527f43657274696669636174653a20496e76616c696420616464726573730000000060448201526064016102b8565b6001600160a01b03861660009081526005602052604090208054861080610ad357508054155b610b325760405162461bcd60e51b815260206004820152602a60248201527f4365727469666961746553746f72653a20537461727420696e646578206f7574604482015269206f6620626f756e647360b01b60648201526084016102b8565b6000610b3e868861174a565b8254909150811115610b4e575080545b610b588782611609565b67ffffffffffffffff811115610b7057610b7061163b565b604051908082528060200260200182016040528015610b99578160200160208202803683370190505b509450865b81811015610bfd57828181548110610bb857610bb86115c2565b9060005260206000200154868983610bd09190611609565b81518110610be057610be06115c2565b602090810291909101015280610bf581611622565b915050610b9e565b509054939793119550919350505050565b600154604051632d33d7d560e01b81523360048201526001600160a01b0390911690632d33d7d590602401602060405180830381865afa158015610c56573d6000803e3d6000fd5b505050506040513d601f19601f82011682018060405250810190610c7a919061154f565b610c965760405162461bcd60e51b81526004016102b890611578565b8180610ce45760405162461bcd60e51b815260206004820152601e60248201527f436572746966696361746553746f72653a20496e76616c69642068617368000060448201526064016102b8565b816001600160a01b038116610d3b5760405162461bcd60e51b815260206004820152601c60248201527f43657274696669636174653a20496e76616c696420616464726573730000000060448201526064016102b8565b600084815260046020526040902054849060ff1615610db15760405162461bcd60e51b815260206004820152602c60248201527f436572746966696361746553746f72653a20436572746966696361746520616c60448201526b72656164792065786973747360a01b60648201526084016102b8565b610db96112d5565b6040518060c00160405280868152602001336001600160a01b03168152602001856001600160a01b031681526020014281526020016000151581526020016000815250600360008781526020019081526020016000206000820151816000015560208201518160010160006101000a8154816001600160a01b0302191690836001600160a01b0316021790555060408201518160020160006101000a8154816001600160a01b0302191690836001600160a01b031602179055506060820151816003015560808201518160040160006101000a81548160ff02191690831515021790555060a0820151816005015590505060016004600087815260200190815260200160002060006101000a81548160ff02191690831515021790555060056000856001600160a01b03166001600160a01b0316815260200190815260200160002085908060018154018082558091505060019003906000526020600020016000909190919091505560066000336001600160a01b03166001600160a01b03168152602001908152602001600020859080600181540180825580915050600190039060005260206000200160009091909190915055600160056000866001600160a01b03166001600160a01b0316815260200190815260200160002080549050610fa39190611609565b6001600160a01b0385166000908152600760209081526040808320898452909152902055610fd5600280546001019055565b60015460405163f466fe1360e01b81523360048201526001600160a01b039091169063f466fe1390602401600060405180830381600087803b15801561101a57600080fd5b505af115801561102e573d6000803e3d6000fd5b50505050836001600160a01b0316336001600160a01b0316867f8a9f2fdd359409354808bbba510d19f4d4facf7f77d5802fc3326db79a7302994260405161107891815260200190565b60405180910390a461108a6001600055565b5050505050565b600154604051632d33d7d560e01b81523360048201526001600160a01b0390911690632d33d7d590602401602060405180830381865afa1580156110d9573d6000803e3d6000fd5b505050506040513d601f19601f820116820180604052508101906110fd919061154f565b6111195760405162461bcd60e51b81526004016102b890611578565b600081815260046020526040902054819060ff166111495760405162461bcd60e51b81526004016102b8906116fe565b60008281526003602052604090206001015482906001600160a01b031633146111da5760405162461bcd60e51b815260206004820152603e60248201527f436572746966696361746553746f72653a2043616c6c6572206973206e6f742060448201527f74686520697373756572206f662074686973206365727469666963617465000060648201526084016102b8565b6111e26112d5565b6000838152600360205260409020600481015460ff161561125b5760405162461bcd60e51b815260206004820152602d60248201527f436572746966696361746553746f72653a20436572746966696361746520616c60448201526c1c9958591e481c995d9bdad959609a1b60648201526084016102b8565b60048101805460ff191660011790554260058201819055604051339186917f85fe6dd2dfc4757558754564c7ff020182ec3c918257c2ff3a217a63791ec24f916112a89190815260200190565b60405180910390a3506112bb6001600055565b505050565b6000806112cc60025490565b92600092509050565b6002600054036113275760405162461bcd60e51b815260206004820152601f60248201527f5265656e7472616e637947756172643a207265656e7472616e742063616c6c0060448201526064016102b8565b6002600055565b60006020828403121561134057600080fd5b5035919050565b60008083601f84011261135957600080fd5b50813567ffffffffffffffff81111561137157600080fd5b6020830191508360208260051b850101111561138c57600080fd5b9250929050565b600080600080604085870312156113a957600080fd5b843567ffffffffffffffff808211156113c157600080fd5b6113cd88838901611347565b909650945060208701359150808211156113e657600080fd5b506113f387828801611347565b95989497509550505050565b60005b8381101561141a578181015183820152602001611402565b50506000910152565b8615158152600060018060a01b038088166020840152808716604084015250846060830152831515608083015260c060a083015282518060c08401526114708160e08501602087016113ff565b601f01601f19169190910160e001979650505050505050565b80356001600160a01b03811681146114a057600080fd5b919050565b6000806000606084860312156114ba57600080fd5b6114c384611489565b95602085013595506040909401359392505050565b604080825283519082018190526000906020906060840190828701845b82811015611511578151845292840192908401906001016114f5565b50505093151592019190915250919050565b6000806040838503121561153657600080fd5b8235915061154660208401611489565b90509250929050565b60006020828403121561156157600080fd5b8151801515811461157157600080fd5b9392505050565b6020808252602a908201527f436572746966696361746553746f72653a2043616c6c6572206973206e6f74206040820152691c9959da5cdd195c995960b21b606082015260800190565b634e487b7160e01b600052603260045260246000fd5b6000602082840312156115ea57600080fd5b61157182611489565b634e487b7160e01b600052601160045260246000fd5b8181038181111561161c5761161c6115f3565b92915050565b600060018201611634576116346115f3565b5060010190565b634e487b7160e01b600052604160045260246000fd5b60006020828403121561166357600080fd5b815167ffffffffffffffff8082111561167b57600080fd5b818401915084601f83011261168f57600080fd5b8151818111156116a1576116a161163b565b604051601f8201601f19908116603f011681019083821181831017156116c9576116c961163b565b816040528281528760208487010111156116e257600080fd5b6116f38360208301602088016113ff565b979650505050505050565b6020808252602c908201527f436572746966696361746553746f72653a20436572746966696361746520646f60408201526b195cc81b9bdd08195e1a5cdd60a21b606082015260800190565b8082018082111561161c5761161c6115f356fea2646970667358221220f8ea58dfee7bb1d9b076249b020d41af004ccd6ab7ac4a7dc60d0b448a19fa2364736f6c63430008130033",
  "bytecodeSha1": "01416b7a2473bd2b1a8b23d824b1e85012f0a67b",
  "compiler": {
    "evm_version": "istanbul",
    "optimizer": {
      "enabled": true,
      "runs": 200
    },
    "version": "0.8.19+commit.7dd6d404"
  },
  "contractName": "CertificateStore",
  "language": "Solidity",
  "natspec": {
    "kind": "dev",
    "methods": {},
    "version": 1
  },
  "opcodes": "PUSH1 0x80 PUSH1 0x40 MSTORE CALLVALUE DUP1 ISZERO PUSH2 0x10 JUMPI PUSH1 0x0 DUP1 REVERT JUMPDEST POP PUSH1 0x4 CALLDATASIZE LT PUSH2 0x9E JUMPI PUSH1 0x0 CALLDATALOAD PUSH1 0xE0 SHR DUP1 PUSH4 0xAC15F0AC GT PUSH2 0x66 JUMPI DUP1 PUSH4 0xAC15F0AC EQ PUSH2 0x146 JUMPI DUP1 PUSH4 0xB1894B0B EQ PUSH2 0x194 JUMPI DUP1 PUSH4 0xBC153C07 EQ PUSH2 0x1B5 JUMPI DUP1 PUSH4 0xC6CBC52A EQ PUSH2 0x1C8 JUMPI DUP1 PUSH4 0xDFE6B5D6 EQ PUSH2 0x1DB JUMPI PUSH1 0x0 DUP1 REVERT JUMPDEST DUP1 PUSH4 0x5714099 EQ PUSH2 0xA3 JUMPI DUP1 PUSH4 0x2196581B EQ PUSH2 0xCB JUMPI DUP1 PUSH4 0x7843BB79 EQ PUSH2 0xE0 JUMPI DUP1 PUSH4 0x850C1768 EQ PUSH2 0xF6 JUMPI DUP1 PUSH4 0x8BFC1851 EQ PUSH2 0x11B JUMPI JUMPDEST PUSH1 0x0 DUP1 REVERT JUMPDEST PUSH2 0xB6 PUSH2 0xB1 CALLDATASIZE PUSH1 0x4 PUSH2 0x132E JUMP JUMPDEST PUSH2 0x1F8 JUMP JUMPDEST PUSH1 0x40 MLOAD SWAP1 ISZERO ISZERO DUP2 MSTORE PUSH1 0x20 ADD JUMPDEST PUSH1 0x40 MLOAD DUP1 SWAP2 SUB SWAP1 RETURN JUMPDEST PUSH2 0xDE PUSH2 0xD9 CALLDATASIZE PUSH1 0x4 PUSH2 0x1393 JUMP JUMPDEST PUSH2 0x230 JUMP JUMPDEST STOP JUMPDEST PUSH2 0xE8 PUSH2 0x7C0 JUMP JUMPDEST PUSH1 0x40 MLOAD SWAP1 DUP2 MSTORE PUSH1 0x20 ADD PUSH2 0xC2 JUMP JUMPDEST PUSH2 0x109 PUSH2 0x104 CALLDATASIZE PUSH1 0x4 PUSH2 0x132E JUMP JUMPDEST PUSH2 0x7D0 JUMP JUMPDEST PUSH1 0x40 MLOAD PUSH2 0xC2 SWAP7 SWAP6 SWAP5 SWAP4 SWAP3 SWAP2 SWAP1 PUSH2 0x1423 JUMP JUMPDEST PUSH1 0x1 SLOAD PUSH2 0x12E SWAP1 PUSH1 0x1 PUSH1 0x1 PUSH1 0xA0 SHL SUB AND DUP2 JUMP JUMPDEST PUSH1 0x40 MLOAD PUSH1 0x1 PUSH1 0x1 PUSH1 0xA0 SHL SUB SWAP1 SWAP2 AND DUP2 MSTORE PUSH1 0x20 ADD PUSH2 0xC2 JUMP JUMPDEST PUSH2 0x159 PUSH2 0x154 CALLDATASIZE PUSH1 0x4 PUSH2 0x132E JUMP JUMPDEST PUSH2 0x99B JUMP JUMPDEST PUSH1 0x40 DUP1 MLOAD SWAP7 DUP8 MSTORE PUSH1 0x1 PUSH1 0x1 PUSH1 0xA0 SHL SUB SWAP6 DUP7 AND PUSH1 0x20 DUP9 ADD MSTORE SWAP4 SWAP1 SWAP5 AND SWAP3 DUP6 ADD SWAP3 SWAP1 SWAP3 MSTORE PUSH1 0x60 DUP5 ADD MSTORE ISZERO ISZERO PUSH1 0x80 DUP4 ADD MSTORE PUSH1 0xA0 DUP3 ADD MSTORE PUSH1 0xC0 ADD PUSH2 0xC2 JUMP JUMPDEST PUSH2 0x1A7 PUSH2 0x1A2 CALLDATASIZE PUSH1 0x4 PUSH2 0x14A5 JUMP JUMPDEST PUSH2 0xA52 JUMP JUMPDEST PUSH1 0x40 MLOAD PUSH2 0xC2 SWAP3 SWAP2 SWAP1 PUSH2 0x14D8 JUMP JUMPDEST PUSH2 0xDE PUSH2 0x1C3 CALLDATASIZE PUSH1 0x4 PUSH2 0x1523 JUMP JUMPDEST PUSH2 0xC0E JUMP JUMPDEST PUSH2 0xDE PUSH2 0x1D6 CALLDATASIZE PUSH1 0x4 PUSH2 0x132E JUMP JUMPDEST PUSH2 0x1091 JUMP JUMPDEST PUSH2 0x1E3 PUSH2 0x12C0 JUMP JUMPDEST PUSH1 0x40 DUP1 MLOAD SWAP3 DUP4 MSTORE PUSH1 0x20 DUP4 ADD SWAP2 SWAP1 SWAP2 MSTORE ADD PUSH2 0xC2 JUMP JUMPDEST PUSH1 0x0 DUP2 DUP2 MSTORE PUSH1 0x4 PUSH1 0x20 MSTORE PUSH1 0x40 DUP2 KECCAK256 SLOAD PUSH1 0xFF AND PUSH2 0x216 JUMPI POP PUSH1 0x0 SWAP2 SWAP1 POP JUMP JUMPDEST POP PUSH1 0x0 SWAP1 DUP2 MSTORE PUSH1 0x3 PUSH1 0x20 MSTORE PUSH1 0x40 SWAP1 KECCAK256 PUSH1 0x4 ADD SLOAD PUSH1 0xFF AND ISZERO SWAP1 JUMP JUMPDEST PUSH1 0x1 SLOAD PUSH1 0x40 MLOAD PUSH4 0x2D33D7D5 PUSH1 0xE0 SHL DUP2 MSTORE CALLER PUSH1 0x4 DUP3 ADD MSTORE PUSH1 0x1 PUSH1 0x1 PUSH1 0xA0 SHL SUB SWAP1 SWAP2 AND SWAP1 PUSH4 0x2D33D7D5 SWAP1 PUSH1 0x24 ADD PUSH1 0x20 PUSH1 0x40 MLOAD DUP1 DUP4 SUB DUP2 DUP7 GAS STATICCALL ISZERO DUP1 ISZERO PUSH2 0x278 JUMPI RETURNDATASIZE PUSH1 0x0 DUP1 RETURNDATACOPY RETURNDATASIZE PUSH1 0x0 REVERT JUMPDEST POP POP POP POP PUSH1 0x40 MLOAD RETURNDATASIZE PUSH1 0x1F NOT PUSH1 0x1F DUP3 ADD AND DUP3 ADD DUP1 PUSH1 0x40 MSTORE POP DUP2 ADD SWAP1 PUSH2 0x29C SWAP2 SWAP1 PUSH2 0x154F JUMP JUMPDEST PUSH2 0x2C1 JUMPI PUSH1 0x40 MLOAD PUSH3 0x461BCD PUSH1 0xE5 SHL DUP2 MSTORE PUSH1 0x4 ADD PUSH2 0x2B8 SWAP1 PUSH2 0x1578 JUMP JUMPDEST PUSH1 0x40 MLOAD DUP1 SWAP2 SUB SWAP1 REVERT JUMPDEST PUSH2 0x2C9 PUSH2 0x12D5 JUMP JUMPDEST DUP3 DUP2 EQ PUSH2 0x328 JUMPI PUSH1 0x40 MLOAD PUSH3 0x461BCD PUSH1 0xE5 SHL DUP2 MSTORE PUSH1 0x20 PUSH1 0x4 DUP3 ADD MSTORE PUSH1 0x27 PUSH1 0x24 DUP3 ADD MSTORE PUSH32 0x436572746966696361746553746F72653A204172726179206C656E677468206D PUSH1 0x44 DUP3 ADD MSTORE PUSH7 0xD2E6DAC2E8C6D PUSH1 0xCB SHL PUSH1 0x64 DUP3 ADD MSTORE PUSH1 0x84 ADD PUSH2 0x2B8 JUMP JUMPDEST DUP3 PUSH2 0x375 JUMPI PUSH1 0x40 MLOAD PUSH3 0x461BCD PUSH1 0xE5 SHL DUP2 MSTORE PUSH1 0x20 PUSH1 0x4 DUP3 ADD MSTORE PUSH1 0x1E PUSH1 0x24 DUP3 ADD MSTORE PUSH32 0x436572746966696361746553746F72653A20456D707479206172726179730000 PUSH1 0x44 DUP3 ADD MSTORE PUSH1 0x64 ADD PUSH2 0x2B8 JUMP JUMPDEST PUSH1 0x64 DUP4 GT ISZERO PUSH2 0x3DA JUMPI PUSH1 0x40 MLOAD PUSH3 0x461BCD PUSH1 0xE5 SHL DUP2 MSTORE PUSH1 0x20 PUSH1 0x4 DUP3 ADD MSTORE PUSH1 0x2B PUSH1 0x24 DUP3 ADD MSTORE PUSH32 0x436572746966696361746553746F72653A20426174636820746F6F206C617267 PUSH1 0x44 DUP3 ADD MSTORE PUSH11 0x6520286D61782031303029 PUSH1 0xA8 SHL PUSH1 0x64 DUP3 ADD MSTORE PUSH1 0x84 ADD PUSH2 0x2B8 JUMP JUMPDEST PUSH1 0x0 JUMPDEST DUP4 DUP2 LT ISZERO PUSH2 0x6F9 JUMPI PUSH1 0x0 DUP6 DUP6 DUP4 DUP2 DUP2 LT PUSH2 0x3F9 JUMPI PUSH2 0x3F9 PUSH2 0x15C2 JUMP JUMPDEST SWAP1 POP PUSH1 0x20 MUL ADD CALLDATALOAD SWAP1 POP PUSH1 0x0 DUP5 DUP5 DUP5 DUP2 DUP2 LT PUSH2 0x416 JUMPI PUSH2 0x416 PUSH2 0x15C2 JUMP JUMPDEST SWAP1 POP PUSH1 0x20 MUL ADD PUSH1 0x20 DUP2 ADD SWAP1 PUSH2 0x42B SWAP2 SWAP1 PUSH2 0x15D8 JUMP JUMPDEST SWAP1 POP DUP2 PUSH2 0x48A JUMPI PUSH1 0x40 MLOAD PUSH3 0x461BCD PUSH1 0xE5 SHL DUP2 MSTORE PUSH1 0x20 PUSH1 0x4 DUP3 ADD MSTORE PUSH1 0x27 PUSH1 0x24 DUP3 ADD MSTORE PUSH32 0x436572746966696361746553746F72653A20496E76616C696420686173682069 PUSH1 0x44 DUP3 ADD MSTORE PUSH7 0xDC40C4C2E8C6D PUSH1 0xCB SHL PUSH1 0x64 DUP3 ADD MSTORE PUSH1 0x84 ADD PUSH2 0x2B8 JUMP JUMPDEST PUSH1 0x1 PUSH1 0x1 PUSH1 0xA0 SHL SUB DUP2 AND PUSH2 0x4F3 JUMPI PUSH1 0x40 MLOAD PUSH3 0x461BCD PUSH1 0xE5 SHL DUP2 MSTORE PUSH1 0x20 PUSH1 0x4 DUP3 ADD MSTORE PUSH1 0x2A PUSH1 0x24 DUP3 ADD MSTORE PUSH32 0x436572746966696361746553746F72653A20496E76616C696420616464726573 PUSH1 0x44 DUP3 ADD MSTORE PUSH10 0xE640D2DC40C4C2E8C6D PUSH1 0xB3 SHL PUSH1 0x64 DUP3 ADD MSTORE PUSH1 0x84 ADD PUSH2 0x2B8 JUMP JUMPDEST PUSH1 0x0 DUP3 DUP2 MSTORE PUSH1 0x4 PUSH1 0x20 MSTORE PUSH1 0x40 SWAP1 KECCAK256 SLOAD PUSH1 0xFF AND ISZERO PUSH2 0x56D JUMPI PUSH1 0x40 MLOAD PUSH3 0x461BCD PUSH1 0xE5 SHL DUP2 MSTORE PUSH1 0x20 PUSH1 0x4 DUP3 ADD MSTORE PUSH1 0x32 PUSH1 0x24 DUP3 ADD MSTORE PUSH32 0x436572746966696361746553746F72653A204475706C69636174652063657274 PUSH1 0x44 DUP3 ADD MSTORE PUSH18 0xD2CCD2C6C2E8D2DEDC40D2DC40C4C2E8C6D PUSH1 0x73 SHL PUSH1 0x64 DUP3 ADD MSTORE PUSH1 0x84 ADD PUSH2 0x2B8 JUMP JUMPDEST PUSH1 0x40 DUP1 MLOAD PUSH1 0xC0 DUP2 ADD DUP3 MSTORE DUP4 DUP2 MSTORE CALLER PUSH1 0x20 DUP1 DUP4 ADD DUP3 DUP2 MSTORE PUSH1 0x1 PUSH1 0x1 PUSH1 0xA0 SHL SUB DUP7 DUP2 AND DUP6 DUP8 ADD DUP2 DUP2 MSTORE TIMESTAMP PUSH1 0x60 DUP9 ADD SWAP1 DUP2 MSTORE PUSH1 0x0 PUSH1 0x80 DUP10 ADD DUP2 DUP2 MSTORE PUSH1 0xA0 DUP11 ADD DUP3 DUP2 MSTORE DUP14 DUP4 MSTORE PUSH1 0x3 DUP1 DUP11 MSTORE DUP13 DUP5 KECCAK256 SWAP12 MLOAD DUP13 SSTORE SWAP8 MLOAD PUSH1 0x1 DUP13 DUP2 ADD DUP1 SLOAD SWAP3 DUP11 AND PUSH1 0x1 PUSH1 0x1 PUSH1 0xA0 SHL SUB NOT SWAP4 DUP5 AND OR SWAP1 SSTORE SWAP6 MLOAD PUSH1 0x2 DUP14 ADD DUP1 SLOAD SWAP2 SWAP1 SWAP10 AND SWAP2 AND OR SWAP1 SWAP7 SSTORE SWAP2 MLOAD SWAP6 DUP10 ADD SWAP6 SWAP1 SWAP6 SSTORE MLOAD PUSH1 0x4 DUP1 DUP10 ADD DUP1 SLOAD SWAP3 ISZERO ISZERO PUSH1 0xFF NOT SWAP4 DUP5 AND OR SWAP1 SSTORE SWAP4 MLOAD PUSH1 0x5 SWAP9 DUP10 ADD SSTORE SWAP3 DUP6 MSTORE DUP8 DUP5 KECCAK256 DUP1 SLOAD SWAP1 SWAP4 AND DUP2 OR SWAP1 SWAP3 SSTORE DUP1 DUP4 MSTORE DUP6 DUP5 MSTORE DUP7 DUP4 KECCAK256 DUP1 SLOAD DUP1 DUP5 ADD DUP3 SSTORE DUP2 DUP6 MSTORE DUP6 DUP6 KECCAK256 ADD DUP11 SWAP1 SSTORE SWAP5 DUP4 MSTORE PUSH1 0x6 DUP5 MSTORE SWAP6 DUP3 KECCAK256 DUP1 SLOAD DUP1 DUP4 ADD DUP3 SSTORE SWAP1 DUP4 MSTORE DUP4 DUP4 KECCAK256 ADD DUP9 SWAP1 SSTORE SWAP5 SWAP1 MSTORE SWAP2 SWAP1 SWAP2 MSTORE SLOAD PUSH2 0x664 SWAP2 SWAP1 PUSH2 0x1609 JUMP JUMPDEST PUSH1 0x1 PUSH1 0x1 PUSH1 0xA0 SHL SUB DUP3 AND PUSH1 0x0 SWAP1 DUP2 MSTORE PUSH1 0x7 PUSH1 0x20 SWAP1 DUP2 MSTORE PUSH1 0x40 DUP1 DUP4 KECCAK256 DUP7 DUP5 MSTORE SWAP1 SWAP2 MSTORE SWAP1 KECCAK256 SSTORE PUSH2 0x696 PUSH1 0x2 DUP1 SLOAD PUSH1 0x1 ADD SWAP1 SSTORE JUMP JUMPDEST DUP1 PUSH1 0x1 PUSH1 0x1 PUSH1 0xA0 SHL SUB AND CALLER PUSH1 0x1 PUSH1 0x1 PUSH1 0xA0 SHL SUB AND DUP4 PUSH32 0x8A9F2FDD359409354808BBBA510D19F4D4FACF7F77D5802FC3326DB79A730299 TIMESTAMP PUSH1 0x40 MLOAD PUSH2 0x6DC SWAP2 DUP2 MSTORE PUSH1 0x20 ADD SWAP1 JUMP JUMPDEST PUSH1 0x40 MLOAD DUP1 SWAP2 SUB SWAP1 LOG4 POP POP DUP1 DUP1 PUSH2 0x6F1 SWAP1 PUSH2 0x1622 JUMP JUMPDEST SWAP2 POP POP PUSH2 0x3DD JUMP JUMPDEST POP PUSH1 0x0 JUMPDEST DUP4 DUP2 LT ISZERO PUSH2 0x775 JUMPI PUSH1 0x1 SLOAD PUSH1 0x40 MLOAD PUSH4 0xF466FE13 PUSH1 0xE0 SHL DUP2 MSTORE CALLER PUSH1 0x4 DUP3 ADD MSTORE PUSH1 0x1 PUSH1 0x1 PUSH1 0xA0 SHL SUB SWAP1 SWAP2 AND SWAP1 PUSH4 0xF466FE13 SWAP1 PUSH1 0x24 ADD PUSH1 0x0 PUSH1 0x40 MLOAD DUP1 DUP4 SUB DUP2 PUSH1 0x0 DUP8 DUP1 EXTCODESIZE ISZERO DUP1 ISZERO PUSH2 0x74A JUMPI PUSH1 0x0 DUP1 REVERT JUMPDEST POP GAS CALL ISZERO DUP1 ISZERO PUSH2 0x75E JUMPI RETURNDATASIZE PUSH1 0x0 DUP1 RETURNDATACOPY RETURNDATASIZE PUSH1 0x0 REVERT JUMPDEST POP POP POP POP DUP1 DUP1 PUSH2 0x76D SWAP1 PUSH2 0x1622 JUMP JUMPDEST SWAP2 POP POP PUSH2 0x6FD JUMP JUMPDEST POP PUSH1 0x40 DUP1 MLOAD DUP5 DUP2 MSTORE TIMESTAMP PUSH1 0x20 DUP3 ADD MSTORE CALLER SWAP2 PUSH32 0x95660B7ECE60CA88DAB417DF4FE732323BC6E694B2475E306C44B539E863165D SWAP2 ADD PUSH1 0x40 MLOAD DUP1 SWAP2 SUB SWAP1 LOG2 PUSH2 0x7BA PUSH1 0x1 PUSH1 0x0 SSTORE JUMP JUMPDEST POP POP POP POP JUMP JUMPDEST PUSH1 0x0 PUSH2 0x7CB PUSH1 0x2 SLOAD SWAP1 JUMP JUMPDEST SWAP1 POP SWAP1 JUMP JUMPDEST PUSH1 0x0 DUP1 DUP1 DUP1 DUP1 PUSH1 0x60 DUP7 DUP1 PUSH2 0x826 JUMPI PUSH1 0x40 MLOAD PUSH3 0x461BCD PUSH1 0xE5 SHL DUP2 MSTORE PUSH1 0x20 PUSH1 0x4 DUP3 ADD MSTORE PUSH1 0x1E PUSH1 0x24 DUP3 ADD MSTORE PUSH32 0x436572746966696361746553746F72653A20496E76616C696420686173680000 PUSH1 0x44 DUP3 ADD MSTORE PUSH1 0x64 ADD PUSH2 0x2B8 JUMP JUMPDEST PUSH1 0x0 DUP9 DUP2 MSTORE PUSH1 0x4 PUSH1 0x20 MSTORE PUSH1 0x40 SWAP1 KECCAK256 SLOAD PUSH1 0xFF AND PUSH2 0x865 JUMPI PUSH1 0x0 DUP1 PUSH1 0x0 DUP1 PUSH1 0x0 PUSH1 0x40 MLOAD DUP1 PUSH1 0x20 ADD PUSH1 0x40 MSTORE DUP1 PUSH1 0x0 DUP2 MSTORE POP SWAP7 POP SWAP7 POP SWAP7 POP SWAP7 POP SWAP7 POP SWAP7 POP PUSH2 0x991 JUMP JUMPDEST PUSH1 0x0 DUP9 DUP2 MSTORE PUSH1 0x3 PUSH1 0x20 DUP2 DUP2 MSTORE PUSH1 0x40 DUP1 DUP5 KECCAK256 DUP2 MLOAD PUSH1 0xC0 DUP2 ADD DUP4 MSTORE DUP2 SLOAD DUP2 MSTORE PUSH1 0x1 DUP1 DUP4 ADD SLOAD PUSH1 0x1 PUSH1 0x1 PUSH1 0xA0 SHL SUB SWAP1 DUP2 AND DUP4 DUP8 ADD SWAP1 DUP2 MSTORE PUSH1 0x2 DUP6 ADD SLOAD DUP3 AND DUP5 DUP8 ADD MSTORE SWAP7 DUP5 ADD SLOAD PUSH1 0x60 DUP5 ADD MSTORE PUSH1 0x4 DUP1 DUP6 ADD SLOAD PUSH1 0xFF AND ISZERO ISZERO PUSH1 0x80 DUP6 ADD MSTORE PUSH1 0x5 SWAP1 SWAP5 ADD SLOAD PUSH1 0xA0 DUP5 ADD MSTORE DUP5 MLOAD SWAP6 DUP7 ADD DUP6 MSTORE SWAP7 DUP6 MSTORE SLOAD SWAP5 MLOAD SWAP3 MLOAD PUSH4 0x3F61895 PUSH1 0xE1 SHL DUP2 MSTORE SWAP3 DUP7 AND SWAP2 DUP4 ADD SWAP2 SWAP1 SWAP2 MSTORE SWAP4 SWAP2 SWAP3 SWAP1 SWAP2 AND SWAP1 PUSH4 0x7EC312A SWAP1 PUSH1 0x24 ADD PUSH1 0x0 PUSH1 0x40 MLOAD DUP1 DUP4 SUB DUP2 DUP7 GAS STATICCALL SWAP3 POP POP POP DUP1 ISZERO PUSH2 0x939 JUMPI POP PUSH1 0x40 MLOAD RETURNDATASIZE PUSH1 0x0 DUP3 RETURNDATACOPY PUSH1 0x1F RETURNDATASIZE SWAP1 DUP2 ADD PUSH1 0x1F NOT AND DUP3 ADD PUSH1 0x40 MSTORE PUSH2 0x936 SWAP2 SWAP1 DUP2 ADD SWAP1 PUSH2 0x1651 JUMP JUMPDEST PUSH1 0x1 JUMPDEST PUSH2 0x968 JUMPI POP PUSH1 0x40 DUP1 MLOAD DUP1 DUP3 ADD SWAP1 SWAP2 MSTORE PUSH1 0xE DUP2 MSTORE PUSH14 0x2AB735B737BBB71024B9B9BAB2B9 PUSH1 0x91 SHL PUSH1 0x20 DUP3 ADD MSTORE PUSH2 0x96B JUMP JUMPDEST SWAP1 POP JUMPDEST PUSH1 0x1 DUP3 PUSH1 0x20 ADD MLOAD DUP4 PUSH1 0x40 ADD MLOAD DUP5 PUSH1 0x60 ADD MLOAD DUP6 PUSH1 0x80 ADD MLOAD DUP6 SWAP9 POP SWAP9 POP SWAP9 POP SWAP9 POP SWAP9 POP SWAP9 POP POP POP JUMPDEST POP SWAP2 SWAP4 SWAP6 POP SWAP2 SWAP4 SWAP6 JUMP JUMPDEST PUSH1 0x0 DUP2 DUP2 MSTORE PUSH1 0x4 PUSH1 0x20 MSTORE PUSH1 0x40 DUP2 KECCAK256 SLOAD DUP2 SWAP1 DUP2 SWAP1 DUP2 SWAP1 DUP2 SWAP1 DUP2 SWAP1 DUP8 SWAP1 PUSH1 0xFF AND PUSH2 0x9D5 JUMPI PUSH1 0x40 MLOAD PUSH3 0x461BCD PUSH1 0xE5 SHL DUP2 MSTORE PUSH1 0x4 ADD PUSH2 0x2B8 SWAP1 PUSH2 0x16FE JUMP JUMPDEST POP POP POP PUSH1 0x0 SWAP5 DUP6 MSTORE POP POP PUSH1 0x3 PUSH1 0x20 DUP2 DUP2 MSTORE PUSH1 0x40 SWAP5 DUP6 SWAP1 KECCAK256 DUP6 MLOAD PUSH1 0xC0 DUP2 ADD DUP8 MSTORE DUP2 SLOAD DUP1 DUP3 MSTORE PUSH1 0x1 DUP4 ADD SLOAD PUSH1 0x1 PUSH1 0x1 PUSH1 0xA0 SHL SUB SWAP1 DUP2 AND SWAP5 DUP4 ADD DUP6 SWAP1 MSTORE PUSH1 0x2 DUP5 ADD SLOAD AND SWAP8 DUP3 ADD DUP9 SWAP1 MSTORE SWAP4 DUP3 ADD SLOAD PUSH1 0x60 DUP3 ADD DUP2 SWAP1 MSTORE PUSH1 0x4 DUP4 ADD SLOAD PUSH1 0xFF AND ISZERO ISZERO PUSH1 0x80 DUP4 ADD DUP2 SWAP1 MSTORE PUSH1 0x5 SWAP1 SWAP4 ADD SLOAD PUSH1 0xA0 SWAP1 SWAP3 ADD DUP3 SWAP1 MSTORE SWAP4 SWAP8 SWAP3 SWAP7 SWAP6 POP SWAP3 SWAP4 POP SWAP2 SWAP1 JUMP JUMPDEST PUSH1 0x60 PUSH1 0x0 DUP5 PUSH1 0x1 PUSH1 0x1 PUSH1 0xA0 SHL SUB DUP2 AND PUSH2 0xAAD JUMPI PUSH1 0x40 MLOAD PUSH3 0x461BCD PUSH1 0xE5 SHL DUP2 MSTORE PUSH1 0x20 PUSH1 0x4 DUP3 ADD MSTORE PUSH1 0x1C PUSH1 0x24 DUP3 ADD MSTORE PUSH32 0x43657274696669636174653A20496E76616C6964206164647265737300000000 PUSH1 0x44 DUP3 ADD MSTORE PUSH1 0x64 ADD PUSH2 0x2B8 JUMP JUMPDEST PUSH1 0x1 PUSH1 0x1 PUSH1 0xA0 SHL SUB DUP7 AND PUSH1 0x0 SWAP1 DUP2 MSTORE PUSH1 0x5 PUSH1 0x20 MSTORE PUSH1 0x40 SWAP1 KECCAK256 DUP1 SLOAD DUP7 LT DUP1 PUSH2 0xAD3 JUMPI POP DUP1 SLOAD ISZERO JUMPDEST PUSH2 0xB32 JUMPI PUSH1 0x40 MLOAD PUSH3 0x461BCD PUSH1 0xE5 SHL DUP2 MSTORE PUSH1 0x20 PUSH1 0x4 DUP3 ADD MSTORE PUSH1 0x2A PUSH1 0x24 DUP3 ADD MSTORE PUSH32 0x4365727469666961746553746F72653A20537461727420696E646578206F7574 PUSH1 0x44 DUP3 ADD MSTORE PUSH10 0x206F6620626F756E6473 PUSH1 0xB0 SHL PUSH1 0x64 DUP3 ADD MSTORE PUSH1 0x84 ADD PUSH2 0x2B8 JUMP JUMPDEST PUSH1 0x0 PUSH2 0xB3E DUP7 DUP9 PUSH2 0x174A JUMP JUMPDEST DUP3 SLOAD SWAP1 SWAP2 POP DUP2 GT ISZERO PUSH2 0xB4E JUMPI POP DUP1 SLOAD JUMPDEST PUSH2 0xB58 DUP8 DUP3 PUSH2 0x1609 JUMP JUMPDEST PUSH8 0xFFFFFFFFFFFFFFFF DUP2 GT ISZERO PUSH2 0xB70 JUMPI PUSH2 0xB70 PUSH2 0x163B JUMP JUMPDEST PUSH1 0x40 MLOAD SWAP1 DUP1 DUP3 MSTORE DUP1 PUSH1 0x20 MUL PUSH1 0x20 ADD DUP3 ADD PUSH1 0x40 MSTORE DUP1 ISZERO PUSH2 0xB99 JUMPI DUP2 PUSH1 0x20 ADD PUSH1 0x20 DUP3 MUL DUP1 CALLDATASIZE DUP4 CALLDATACOPY ADD SWAP1 POP JUMPDEST POP SWAP5 POP DUP7 JUMPDEST DUP2 DUP2 LT ISZERO PUSH2 0xBFD JUMPI DUP3 DUP2 DUP2 SLOAD DUP2 LT PUSH2 0xBB8 JUMPI PUSH2 0xBB8 PUSH2 0x15C2 JUMP JUMPDEST SWAP1 PUSH1 0x0 MSTORE PUSH1 0x20 PUSH1 0x0 KECCAK256 ADD SLOAD DUP7 DUP10 DUP4 PUSH2 0xBD0 SWAP2 SWAP1 PUSH2 0x1609 JUMP JUMPDEST DUP2 MLOAD DUP2 LT PUSH2 0xBE0 JUMPI PUSH2 0xBE0 PUSH2 0x15C2 JUMP JUMPDEST PUSH1 0x20 SWAP1 DUP2 MUL SWAP2 SWAP1 SWAP2 ADD ADD MSTORE DUP1 PUSH2 0xBF5 DUP2 PUSH2 0x1622 JUMP JUMPDEST SWAP2 POP POP PUSH2 0xB9E JUMP JUMPDEST POP SWAP1 SLOAD SWAP4 SWAP8 SWAP4 GT SWAP6 POP SWAP2 SWAP4 POP POP POP POP JUMP JUMPDEST PUSH1 0x1 SLOAD PUSH1 0x40 MLOAD PUSH4 0x2D33D7D5 PUSH1 0xE0 SHL DUP2 MSTORE CALLER PUSH1 0x4 DUP3 ADD MSTORE PUSH1 0x1 PUSH1 0x1 PUSH1 0xA0 SHL SUB SWAP1 SWAP2 AND SWAP1 PUSH4 0x2D33D7D5 SWAP1 PUSH1 0x24 ADD PUSH1 0x20 PUSH1 0x40 MLOAD DUP1 DUP4 SUB DUP2 DUP7 GAS STATICCALL ISZERO DUP1 ISZERO PUSH2 0xC56 JUMPI RETURNDATASIZE PUSH1 0x0 DUP1 RETURNDATACOPY RETURNDATASIZE PUSH1 0x0 REVERT JUMPDEST POP POP POP POP PUSH1 0x40 MLOAD RETURNDATASIZE PUSH1 0x1F NOT PUSH1 0x1F DUP3 ADD AND DUP3 ADD DUP1 PUSH1 0x40 MSTORE POP DUP2 ADD SWAP1 PUSH2 0xC7A SWAP2 SWAP1 PUSH2 0x154F JUMP JUMPDEST PUSH2 0xC96 JUMPI PUSH1 0x40 MLOAD PUSH3 0x461BCD PUSH1 0xE5 SHL DUP2 MSTORE PUSH1 0x4 ADD PUSH2 0x2B8 SWAP1 PUSH2 0x1578 JUMP JUMPDEST DUP2 DUP1 PUSH2 0xCE4 JUMPI PUSH1 0x40 MLOAD PUSH3 0x461BCD PUSH1 0xE5 SHL DUP2 MSTORE PUSH1 0x20 PUSH1 0x4 DUP3 ADD MSTORE PUSH1 0x1E PUSH1 0x24 DUP3 ADD MSTORE PUSH32 0x436572746966696361746553746F72653A20496E76616C696420686173680000 PUSH1 0x44 DUP3 ADD MSTORE PUSH1 0x64 ADD PUSH2 0x2B8 JUMP JUMPDEST DUP2 PUSH1 0x1 PUSH1 0x1 PUSH1 0xA0 SHL SUB DUP2 AND PUSH2 0xD3B JUMPI PUSH1 0x40 MLOAD PUSH3 0x461BCD PUSH1 0xE5 SHL DUP2 MSTORE PUSH1 0x20 PUSH1 0x4 DUP3 ADD MSTORE PUSH1 0x1C PUSH1 0x24 DUP3 ADD MSTORE PUSH32 0x43657274696669636174653A20496E76616C6964206164647265737300000000 PUSH1 0x44 DUP3 ADD MSTORE PUSH1 0x64 ADD PUSH2 0x2B8 JUMP JUMPDEST PUSH1 0x0 DUP5 DUP2 MSTORE PUSH1 0x4 PUSH1 0x20 MSTORE PUSH1 0x40 SWAP1 KECCAK256 SLOAD DUP5 SWAP1 PUSH1 0xFF AND ISZERO PUSH2 0xDB1 JUMPI PUSH1 0x40 MLOAD PUSH3 0x461BCD PUSH1 0xE5 SHL DUP2 MSTORE PUSH1 0x20 PUSH1 0x4 DUP3 ADD MSTORE PUSH1 0x2C PUSH1 0x24 DUP3 ADD MSTORE PUSH32 0x436572746966696361746553746F72653A20436572746966696361746520616C PUSH1 0x44 DUP3 ADD MSTORE PUSH12 0x726561647920657869737473 PUSH1 0xA0 SHL PUSH1 0x64 DUP3 ADD MSTORE PUSH1 0x84 ADD PUSH2 0x2B8 JUMP JUMPDEST PUSH2 0xDB9 PUSH2 0x12D5 JUMP JUMPDEST PUSH1 0x40 MLOAD DUP1 PUSH1 0xC0 ADD PUSH1 0x40 MSTORE DUP1 DUP7 DUP2 MSTORE PUSH1 0x20 ADD CALLER PUSH1 0x1 PUSH1 0x1 PUSH1 0xA0 SHL SUB AND DUP2 MSTORE PUSH1 0x20 ADD DUP6 PUSH1 0x1 PUSH1 0x1 PUSH1 0xA0 SHL SUB AND DUP2 MSTORE PUSH1 0x20 ADD TIMESTAMP DUP2 MSTORE PUSH1 0x20 ADD PUSH1 0x0 ISZERO ISZERO DUP2 MSTORE PUSH1 0x20 ADD PUSH1 0x0 DUP2 MSTORE POP PUSH1 0x3 PUSH1 0x0 DUP8 DUP2 MSTORE PUSH1 0x20 ADD SWAP1 DUP2 MSTORE PUSH1 0x20 ADD PUSH1 0x0 KECCAK256 PUSH1 0x0 DUP3 ADD MLOAD DUP2 PUSH1 0x0 ADD SSTORE PUSH1 0x20 DUP3 ADD MLOAD DUP2 PUSH1 0x1 ADD PUSH1 0x0 PUSH2 0x100 EXP DUP2 SLOAD DUP2 PUSH1 0x1 PUSH1 0x1 PUSH1 0xA0 SHL SUB MUL NOT AND SWAP1 DUP4 PUSH1 0x1 PUSH1 0x1 PUSH1 0xA0 SHL SUB AND MUL OR SWAP1 SSTORE POP PUSH1 0x40 DUP3 ADD MLOAD DUP2 PUSH1 0x2 ADD PUSH1 0x0 PUSH2 0x100 EXP DUP2 SLOAD DUP2 PUSH1 0x1 PUSH1 0x1 PUSH1 0xA0 SHL SUB MUL NOT AND SWAP1 DUP4 PUSH1 0x1 PUSH1 0x1 PUSH1 0xA0 SHL SUB AND MUL OR SWAP1 SSTORE POP PUSH1 0x60 DUP3 ADD MLOAD DUP2 PUSH1 0x3 ADD SSTORE PUSH1 0x80 DUP3 ADD MLOAD DUP2 PUSH1 0x4 ADD PUSH1 0x0 PUSH2 0x100 EXP DUP2 SLOAD DUP2 PUSH1 0xFF MUL NOT AND SWAP1 DUP4 ISZERO ISZERO MUL OR SWAP1 SSTORE POP PUSH1 0xA0 DUP3 ADD MLOAD DUP2 PUSH1 0x5 ADD SSTORE SWAP1 POP POP PUSH1 0x1 PUSH1 0x4 PUSH1 0x0 DUP8 DUP2 MSTORE PUSH1 0x20 ADD SWAP1 DUP2 MSTORE PUSH1 0x20 ADD PUSH1 0x0 KECCAK256 PUSH1 0x0 PUSH2 0x100 EXP DUP2 SLOAD DUP2 PUSH1 0xFF MUL NOT AND SWAP1 DUP4 ISZERO ISZERO MUL OR SWAP1 SSTORE POP PUSH1 0x5 PUSH1 0x0 DUP6 PUSH1 0x1 PUSH1 0x1 PUSH1 0xA0 SHL SUB AND PUSH1 0x1 PUSH1 0x1 PUSH1 0xA0 SHL SUB AND DUP2 MSTORE PUSH1 0x20 ADD SWAP1 DUP2 MSTORE PUSH1 0x20 ADD PUSH1 0x0 KECCAK256 DUP6 SWAP1 DUP1 PUSH1 0x1 DUP2 SLOAD ADD DUP1 DUP3 SSTORE DUP1 SWAP2 POP POP PUSH1 0x1 SWAP1 SUB SWAP1 PUSH1 0x0 MSTORE PUSH1 0x20 PUSH1 0x0 KECCAK256 ADD PUSH1 0x0 SWAP1 SWAP2 SWAP1 SWAP2 SWAP1 SWAP2 POP SSTORE PUSH1 0x6 PUSH1 0x0 CALLER PUSH1 0x1 PUSH1 0x1 PUSH1 0xA0 SHL SUB AND PUSH1 0x1 PUSH1 0x1 PUSH1 0xA0 SHL SUB AND DUP2 MSTORE PUSH1 0x20 ADD SWAP1 DUP2 MSTORE PUSH1 0x20 ADD PUSH1 0x0 KECCAK256 DUP6 SWAP1 DUP1 PUSH1 0x1 DUP2 SLOAD ADD DUP1 DUP3 SSTORE DUP1 SWAP2 POP POP PUSH1 0x1 SWAP1 SUB SWAP1 PUSH1 0x0 MSTORE PUSH1 0x20 PUSH1 0x0 KECCAK256 ADD PUSH1 0x0 SWAP1 SWAP2 SWAP1 SWAP2 SWAP1 SWAP2 POP SSTORE PUSH1 0x1 PUSH1 0x5 PUSH1 0x0 DUP7 PUSH1 0x1 PUSH1 0x1 PUSH1 0xA0 SHL SUB AND PUSH1 0x1 PUSH1 0x1 PUSH1 0xA0 SHL SUB AND DUP2 MSTORE PUSH1 0x20 ADD SWAP1 DUP2 MSTORE PUSH1 0x20 ADD PUSH1 0x0 KECCAK256 DUP1 SLOAD SWAP1 POP PUSH2 0xFA3 SWAP2 SWAP1 PUSH2 0x1609 JUMP JUMPDEST PUSH1 0x1 PUSH1 0x1 PUSH1 0xA0 SHL SUB DUP6 AND PUSH1 0x0 SWAP1 DUP2 MSTORE PUSH1 0x7 PUSH1 0x20 SWAP1 DUP2 MSTORE PUSH1 0x40 DUP1 DUP4 KECCAK256 DUP10 DUP5 MSTORE SWAP1 SWAP2 MSTORE SWAP1 KECCAK256 SSTORE PUSH2 0xFD5 PUSH1 0x2 DUP1 SLOAD PUSH1 0x1 ADD SWAP1 SSTORE JUMP JUMPDEST PUSH1 0x1 SLOAD PUSH1 0x40 MLOAD PUSH4 0xF466FE13 PUSH1 0xE0 SHL DUP2 MSTORE CALLER PUSH1 0x4 DUP3 ADD MSTORE PUSH1 0x1 PUSH1 0x1 PUSH1 0xA0 SHL SUB SWAP1 SWAP2 AND SWAP1 PUSH4 0xF466FE13 SWAP1 PUSH1 0x24 ADD PUSH1 0x0 PUSH1 0x40 MLOAD DUP1 DUP4 SUB DUP2 PUSH1 0x0 DUP8 DUP1 EXTCODESIZE ISZERO DUP1 ISZERO PUSH2 0x101A JUMPI PUSH1 0x0 DUP1 REVERT JUMPDEST POP GAS CALL ISZERO DUP1 ISZERO PUSH2 0x102E JUMPI RETURNDATASIZE PUSH1 0x0 DUP1 RETURNDATACOPY RETURNDATASIZE PUSH1 0x0 REVERT JUMPDEST POP POP POP POP DUP4 PUSH1 0x1 PUSH1 0x1 PUSH1 0xA0 SHL SUB AND CALLER PUSH1 0x1 PUSH1 0x1 PUSH1 0xA0 SHL SUB AND DUP7 PUSH32 0x8A9F2FDD359409354808BBBA510D19F4D4FACF7F77D5802FC3326DB79A730299 TIMESTAMP PUSH1 0x40 MLOAD PUSH2 0x1078 SWAP2 DUP2 MSTORE PUSH1 0x20 ADD SWAP1 JUMP JUMPDEST PUSH1 0x40 MLOAD DUP1 SWAP2 SUB SWAP1 LOG4 PUSH2 0x108A PUSH1 0x1 PUSH1 0x0 SSTORE JUMP JUMPDEST POP POP POP POP POP JUMP JUMPDEST PUSH1 0x1 SLOAD PUSH1 0x40 MLOAD PUSH4 0x2D33D7D5 PUSH1 0xE0 SHL DUP2 MSTORE CALLER PUSH1 0x4 DUP3 ADD MSTORE PUSH1 0x1 PUSH1 0x1 PUSH1 0xA0 SHL SUB SWAP1 SWAP2 AND SWAP1 PUSH4 0x2D33D7D5 SWAP1 PUSH1 0x24 ADD PUSH1 0x20 PUSH1 0x40 MLOAD DUP1 DUP4 SUB DUP2 DUP7 GAS STATICCALL ISZERO DUP1 ISZERO PUSH2 0x10D9 JUMPI RETURNDATASIZE PUSH1 0x0 DUP1 RETURNDATACOPY RETURNDATASIZE PUSH1 0x0 REVERT JUMPDEST POP POP POP POP PUSH1 0x40 MLOAD RETURNDATASIZE PUSH1 0x1F NOT PUSH1 0x1F DUP3 ADD AND DUP3 ADD DUP1 PUSH1 0x40 MSTORE POP DUP2 ADD SWAP1 PUSH2 0x10FD SWAP2 SWAP1 PUSH2 0x154F JUMP JUMPDEST PUSH2 0x1119 JUMPI PUSH1 0x40 MLOAD PUSH3 0x461BCD PUSH1 0xE5 SHL DUP2 MSTORE PUSH1 0x4 ADD PUSH2 0x2B8 SWAP1 PUSH2 0x1578 JUMP JUMPDEST PUSH1 0x0 DUP2 DUP2 MSTORE PUSH1 0x4 PUSH1 0x20 MSTORE PUSH1 0x40 SWAP1 KECCAK256 SLOAD DUP2 SWAP1 PUSH1 0xFF AND PUSH2 0x1149 JUMPI PUSH1 0x40 MLOAD PUSH3 0x461BCD PUSH1 0xE5 SHL DUP2 MSTORE PUSH1 0x4 ADD PUSH2 0x2B8 SWAP1 PUSH2 0x16FE JUMP JUMPDEST PUSH1 0x0 DUP3 DUP2 MSTORE PUSH1 0x3 PUSH1 0x20 MSTORE PUSH1 0x40 SWAP1 KECCAK256 PUSH1 0x1 ADD SLOAD DUP3 SWAP1 PUSH1 0x1 PUSH1 0x1 PUSH1 0xA0 SHL SUB AND CALLER EQ PUSH2 0x11DA JUMPI PUSH1 0x40 MLOAD PUSH3 0x461BCD PUSH1 0xE5 SHL DUP2 MSTORE PUSH1 0x20 PUSH1 0x4 DUP3 ADD MSTORE PUSH1 0x3E PUSH1 0x24 DUP3 ADD MSTORE PUSH32 0x436572746966696361746553746F72653A2043616C6C6572206973206E6F7420 PUSH1 0x44 DUP3 ADD MSTORE PUSH32 0x74686520697373756572206F6620746869732063657274696669636174650000 PUSH1 0x64 DUP3 ADD MSTORE PUSH1 0x84 ADD PUSH2 0x2B8 JUMP JUMPDEST PUSH2 0x11E2 PUSH2 0x12D5 JUMP JUMPDEST PUSH1 0x0 DUP4 DUP2 MSTORE PUSH1 0x3 PUSH1 0x20 MSTORE PUSH1 0x40 SWAP1 KECCAK256 PUSH1 0x4 DUP2 ADD SLOAD PUSH1 0xFF AND ISZERO PUSH2 0x125B JUMPI PUSH1 0x40 MLOAD PUSH3 0x461BCD PUSH1 0xE5 SHL DUP2 MSTORE PUSH1 0x20 PUSH1 0x4 DUP3 ADD MSTORE PUSH1 0x2D PUSH1 0x24 DUP3 ADD MSTORE PUSH32 0x436572746966696361746553746F72653A20436572746966696361746520616C PUSH1 0x44 DUP3 ADD MSTORE PUSH13 0x1C9958591E481C995D9BDAD959 PUSH1 0x9A SHL PUSH1 0x64 DUP3 ADD MSTORE PUSH1 0x84 ADD PUSH2 0x2B8 JUMP JUMPDEST PUSH1 0x4 DUP2 ADD DUP1 SLOAD PUSH1 0xFF NOT AND PUSH1 0x1 OR SWAP1 SSTORE TIMESTAMP PUSH1 0x5 DUP3 ADD DUP2 SWAP1 SSTORE PUSH1 0x40 MLOAD CALLER SWAP2 DUP7 SWAP2 PUSH32 0x85FE6DD2DFC4757558754564C7FF020182EC3C918257C2FF3A217A63791EC24F SWAP2 PUSH2 0x12A8 SWAP2 SWAP1 DUP2 MSTORE PUSH1 0x20 ADD SWAP1 JUMP JUMPDEST PUSH1 0x40 MLOAD DUP1 SWAP2 SUB SWAP1 LOG3 POP PUSH2 0x12BB PUSH1 0x1 PUSH1 0x0 SSTORE JUMP JUMPDEST POP POP POP JUMP JUMPDEST PUSH1 0x0 DUP1 PUSH2 0x12CC PUSH1 0x2 SLOAD SWAP1 JUMP JUMPDEST SWAP3 PUSH1 0x0 SWAP3 POP SWAP1 POP JUMP JUMPDEST PUSH1 0x2 PUSH1 0x0 SLOAD SUB PUSH2 0x1327 JUMPI PUSH1 0x40 MLOAD PUSH3 0x461BCD PUSH1 0xE5 SHL DUP2 MSTORE PUSH1 0x20 PUSH1 0x4 DUP3 ADD MSTORE PUSH1 0x1F PUSH1 0x24 DUP3 ADD MSTORE PUSH32 0x5265656E7472616E637947756172643A207265656E7472616E742063616C6C00 PUSH1 0x44 DUP3 ADD MSTORE PUSH1 0x64 ADD PUSH2 0x2B8 JUMP JUMPDEST PUSH1 0x2 PUSH1 0x0 SSTORE JUMP JUMPDEST PUSH1 0x0 PUSH1 0x20 DUP3 DUP5 SUB SLT ISZERO PUSH2 0x1340 JUMPI PUSH1 0x0 DUP1 REVERT JUMPDEST POP CALLDATALOAD SWAP2 SWAP1 POP JUMP JUMPDEST PUSH1 0x0 DUP1 DUP4 PUSH1 0x1F DUP5 ADD SLT PUSH2 0x1359 JUMPI PUSH1 0x0 DUP1 REVERT JUMPDEST POP DUP2 CALLDATALOAD PUSH8 0xFFFFFFFFFFFFFFFF DUP2 GT ISZERO PUSH2 0x1371 JUMPI PUSH1 0x0 DUP1 REVERT JUMPDEST PUSH1 0x20 DUP4 ADD SWAP2 POP DUP4 PUSH1 0x20 DUP3 PUSH1 0x5 SHL DUP6 ADD ADD GT ISZERO PUSH2 0x138C JUMPI PUSH1 0x0 DUP1 REVERT JUMPDEST SWAP3 POP SWAP3 SWAP1 POP JUMP JUMPDEST PUSH1 0x0 DUP1 PUSH1 0x0 DUP1 PUSH1 0x40 DUP6 DUP8 SUB SLT ISZERO PUSH2 0x13A9 JUMPI PUSH1 0x0 DUP1 REVERT JUMPDEST DUP5 CALLDATALOAD PUSH8 0xFFFFFFFFFFFFFFFF DUP1 DUP3 GT ISZERO PUSH2 0x13C1 JUMPI PUSH1 0x0 DUP1 REVERT JUMPDEST PUSH2 0x13CD DUP9 DUP4 DUP10 ADD PUSH2 0x1347 JUMP JUMPDEST SWAP1 SWAP7 POP SWAP5 POP PUSH1 0x20 DUP8 ADD CALLDATALOAD SWAP2 POP DUP1 DUP3 GT ISZERO PUSH2 0x13E6 JUMPI PUSH1 0x0 DUP1 REVERT JUMPDEST POP PUSH2 0x13F3 DUP8 DUP3 DUP9 ADD PUSH2 0x1347 JUMP JUMPDEST SWAP6 SWAP9 SWAP5 SWAP8 POP SWAP6 POP POP POP POP JUMP JUMPDEST PUSH1 0x0 JUMPDEST DUP4 DUP2 LT ISZERO PUSH2 0x141A JUMPI DUP2 DUP2 ADD MLOAD DUP4 DUP3 ADD MSTORE PUSH1 0x20 ADD PUSH2 0x1402 JUMP JUMPDEST POP POP PUSH1 0x0 SWAP2 ADD MSTORE JUMP JUMPDEST DUP7 ISZERO ISZERO DUP2 MSTORE PUSH1 0x0 PUSH1 0x1 DUP1 PUSH1 0xA0 SHL SUB DUP1 DUP9 AND PUSH1 0x20 DUP5 ADD MSTORE DUP1 DUP8 AND PUSH1 0x40 DUP5 ADD MSTORE POP DUP5 PUSH1 0x60 DUP4 ADD MSTORE DUP4 ISZERO ISZERO PUSH1 0x80 DUP4 ADD MSTORE PUSH1 0xC0 PUSH1 0xA0 DUP4 ADD MSTORE DUP3 MLOAD DUP1 PUSH1 0xC0 DUP5 ADD MSTORE PUSH2 0x1470 DUP2 PUSH1 0xE0 DUP6 ADD PUSH1 0x20 DUP8 ADD PUSH2 0x13FF JUMP JUMPDEST PUSH1 0x1F ADD PUSH1 0x1F NOT AND SWAP2 SWAP1 SWAP2 ADD PUSH1 0xE0 ADD SWAP8 SWAP7 POP POP POP POP POP POP POP JUMP JUMPDEST DUP1 CALLDATALOAD PUSH1 0x1 PUSH1 0x1 PUSH1 0xA0 SHL SUB DUP2 AND DUP2 EQ PUSH2 0x14A0 JUMPI PUSH1 0x0 DUP1 REVERT JUMPDEST SWAP2 SWAP1 POP JUMP JUMPDEST PUSH1 0x0 DUP1 PUSH1 0x0 PUSH1 0x60 DUP5 DUP7 SUB SLT ISZERO PUSH2 0x14BA JUMPI PUSH1 0x0 DUP1 REVERT JUMPDEST PUSH2 0x14C3 DUP5 PUSH2 0x1489 JUMP JUMPDEST SWAP6 PUSH1 0x20 DUP6 ADD CALLDATALOAD SWAP6 POP PUSH1 0x40 SWAP1 SWAP5 ADD CALLDATALOAD SWAP4 SWAP3 POP POP POP JUMP JUMPDEST PUSH1 0x40 DUP1 DUP3 MSTORE DUP4 MLOAD SWAP1 DUP3 ADD DUP2 SWAP1 MSTORE PUSH1 0x0 SWAP1 PUSH1 0x20 SWAP1 PUSH1 0x60 DUP5 ADD SWAP1 DUP3 DUP8 ADD DUP5 JUMPDEST DUP3 DUP2 LT ISZERO PUSH2 0x1511 JUMPI DUP2 MLOAD DUP5 MSTORE SWAP3 DUP5 ADD SWAP3 SWAP1 DUP5 ADD SWAP1 PUSH1 0x1 ADD PUSH2 0x14F5 JUMP JUMPDEST POP POP POP SWAP4 ISZERO ISZERO SWAP3 ADD SWAP2 SWAP1 SWAP2 MSTORE POP SWAP2 SWAP1 POP JUMP JUMPDEST PUSH1 0x0 DUP1 PUSH1 0x40 DUP4 DUP6 SUB SLT ISZERO PUSH2 0x1536 JUMPI PUSH1 0x0 DUP1 REVERT JUMPDEST DUP3 CALLDATALOAD SWAP2 POP PUSH2 0x1546 PUSH1 0x20 DUP5 ADD PUSH2 0x1489 JUMP JUMPDEST SWAP1 POP SWAP3 POP SWAP3 SWAP1 POP JUMP JUMPDEST PUSH1 0x0 PUSH1 0x20 DUP3 DUP5 SUB SLT ISZERO PUSH2 0x1561 JUMPI PUSH1 0x0 DUP1 REVERT JUMPDEST DUP2 MLOAD DUP1 ISZERO ISZERO DUP2 EQ PUSH2 0x1571 JUMPI PUSH1 0x0 DUP1 REVERT JUMPDEST SWAP4 SWAP3 POP POP POP JUMP JUMPDEST PUSH1 0x20 DUP1 DUP3 MSTORE PUSH1 0x2A SWAP1 DUP3 ADD MSTORE PUSH32 0x436572746966696361746553746F72653A2043616C6C6572206973206E6F7420 PUSH1 0x40 DUP3 ADD MSTORE PUSH10 0x1C9959DA5CDD195C9959 PUSH1 0xB2 SHL PUSH1 0x60 DUP3 ADD MSTORE PUSH1 0x80 ADD SWAP1 JUMP JUMPDEST PUSH4 0x4E487B71 PUSH1 0xE0 SHL PUSH1 0x0 MSTORE PUSH1 0x32 PUSH1 0x4 MSTORE PUSH1 0x24 PUSH1 0x0 REVERT JUMPDEST PUSH1 0x0 PUSH1 0x20 DUP3 DUP5 SUB SLT ISZERO PUSH2 0x15EA JUMPI PUSH1 0x0 DUP1 REVERT JUMPDEST PUSH2 0x1571 DUP3 PUSH2 0x1489 JUMP JUMPDEST PUSH4 0x4E487B71 PUSH1 0xE0 SHL PUSH1 0x0 MSTORE PUSH1 0x11 PUSH1 0x4 MSTORE PUSH1 0x24 PUSH1 0x0 REVERT JUMPDEST DUP2 DUP2 SUB DUP2 DUP2 GT ISZERO PUSH2 0x161C JUMPI PUSH2 0x161C PUSH2 0x15F3 JUMP JUMPDEST SWAP3 SWAP2 POP POP JUMP JUMPDEST PUSH1 0x0 PUSH1 0x1 DUP3 ADD PUSH2 0x1634 JUMPI PUSH2 0x1634 PUSH2 0x15F3 JUMP JUMPDEST POP PUSH1 0x1 ADD SWAP1 JUMP JUMPDEST PUSH4 0x4E487B71 PUSH1 0xE0 SHL PUSH1 0x0 MSTORE PUSH1 0x41 PUSH1 0x4 MSTORE PUSH1 0x24 PUSH1 0x0 REVERT JUMPDEST PUSH1 0x0 PUSH1 0x20 DUP3 DUP5 SUB SLT ISZERO PUSH2 0x1663 JUMPI PUSH1 0x0 DUP1 REVERT JUMPDEST DUP2 MLOAD PUSH8 0xFFFFFFFFFFFFFFFF DUP1 DUP3 GT ISZERO PUSH2 0x167B JUMPI PUSH1 0x0 DUP1 REVERT JUMPDEST DUP2 DUP5 ADD SWAP2 POP DUP5 PUSH1 0x1F DUP4 ADD SLT PUSH2 0x168F JUMPI PUSH1 0x0 DUP1 REVERT JUMPDEST DUP2 MLOAD DUP2 DUP2 GT ISZERO PUSH2 0x16A1 JUMPI PUSH2 0x16A1 PUSH2 0x163B JUMP JUMPDEST PUSH1 0x40 MLOAD PUSH1 0x1F DUP3 ADD PUSH1 0x1F NOT SWAP1 DUP2 AND PUSH1 0x3F ADD AND DUP2 ADD SWAP1 DUP4 DUP3 GT DUP2 DUP4 LT OR ISZERO PUSH2 0x16C9 JUMPI PUSH2 0x16C9 PUSH2 0x163B JUMP JUMPDEST DUP2 PUSH1 0x40 MSTORE DUP3 DUP2 MSTORE DUP8 PUSH1 0x20 DUP5 DUP8 ADD ADD GT ISZERO PUSH2 0x16E2 JUMPI PUSH1 0x0 DUP1 REVERT JUMPDEST PUSH2 0x16F3 DUP4 PUSH1 0x20 DUP4 ADD PUSH1 0x20 DUP9 ADD PUSH2 0x13FF JUMP JUMPDEST SWAP8 SWAP7 POP POP POP POP POP POP POP JUMP JUMPDEST PUSH1 0x20 DUP1 DUP3 MSTORE PUSH1 0x2C SWAP1 DUP3 ADD MSTORE PUSH32 0x436572746966696361746553746F72653A20436572746966696361746520646F PUSH1 0x40 DUP3 ADD MSTORE PUSH12 0x195CC81B9BDD08195E1A5CDD PUSH1 0xA2 SHL PUSH1 0x60 DUP3 ADD MSTORE PUSH1 0x80 ADD SWAP1 JUMP JUMPDEST DUP1 DUP3 ADD DUP1 DUP3 GT ISZERO PUSH2 0x161C JUMPI PUSH2 0x161C PUSH2 0x15F3 JUMP INVALID LOG2 PUSH5 0x6970667358 0x22 SLT KECCAK256 0xF8 0xEA PC 0xDF 0xEE PUSH28 0xB1D9B076249B020D41AF004CCD6AB7AC4A7DC60D0B448A19FA236473 PUSH16 0x6C634300081300330000000000000000 ",
  "sha1": "8fedf5420448cb22f5173162bb78b8c27bc0051d",
  "source": "// SPDX-License-Identifier: MIT\npragma solidity ^0.8.19;\n\nimport \"@openzeppelin/contracts/security/ReentrancyGuard.sol\";\nimport \"@openzeppelin/contracts/utils/Counters.sol\";\n\ninterface IIssuerRegistry{\n    function isRegisteredIssuer(address _issuerAddress) external view returns (bool);\n    function incrementCertificateCount(address _issuerAddress) external;\n    function getIssuerName(address _issuerAddress) external view returns (string memory);\n\n}\n\ncontract CertificateStore is ReentrancyGuard{\n    using Counters for Counters.Counter;\n\n    struct Certificate {\n        bytes32 certificateHash;\n        address issuer;\n        address recipient;\n        uint256 issuanceTime;\n        bool isRevoked;\n        uint256 revocationTime;\n    }\n\n    IIssuerRegistry public issuerRegistry;\n    Counters.Counter private certificateCounter;\n\n    mapping(bytes32 => Certificate) private certificates;\n    mapping(bytes32 => bool) private certificateExists;\n    mapping(address => bytes32[]) private recipientCertificates;\n    mapping(address => bytes32[]) private issuerCertificates;\n    mapping(address => mapping(bytes32 => uint256)) private recipientCertificateIndex;\n\n    event CertificateIssued(\n        bytes32 indexed certificateHash,\n        address indexed issuer,\n        address indexed recipient,\n        uint256 timestamp\n    );\n\n    event CertificateRevoked(\n        bytes32 indexed certificateHash,\n        address indexed issuer,\n        uint256 timestamp\n    );\n\n    event BatchCertificatesIssued(\n        address indexed issuer,\n        uint256 count,\n        uint256 timestamp\n    );\n\n    modifier onlyRegisteredIssuer(){\n        require(issuerRegistry.isRegisteredIssuer(msg.sender),\n        \"CertificateStore: Caller is not registered\");\n        _;\n    }\n\n    modifier certificateMustExist(bytes32 _certificateHash){\n        require(certificateExists[_certificateHash],\n        \"CertificateStore: Certificate does not exist\");\n        _;\n    }\n\n    modifier certificateMustNotExist(bytes32 _certificateHash){\n        require(!certificateExists[_certificateHash],\n        \"CertificateStore: Certificate already exists\");\n        _;\n    }\n\n    modifier onlyIssuerOfCertificate(bytes32 _certificateHash){\n        require(certificates[_certificateHash].issuer == msg.sender,\n        \"CertificateStore: Caller is not the issuer of this certificate\");\n        _;\n    }\n\n    modifier validAddress(address _address){\n        require(_address != address(0), \"Certificate: Invalid address\");\n        _;\n    }\n\n    modifier validHash(bytes32 _hash){\n        require(_hash != bytes32(0), \"CertificateStore: Invalid hash\");\n        _;\n    }\n\n    constructor(address _issuerRegistryAddress){\n        require(_issuerRegistryAddress != address(0),\n        \"CertificateStore: Invalid IssuerRegistry address\");\n        issuerRegistry = IIssuerRegistry(_issuerRegistryAddress);\n    }\n\n    function issueCertificate(bytes32 _certificateHash, address _recipientAddress)\n        external\n        onlyRegisteredIssuer\n        validHash(_certificateHash)\n        validAddress(_recipientAddress)\n        certificateMustNotExist(_certificateHash)\n        nonReentrant{\n        \n        certificates[_certificateHash] = Certificate({\n            certificateHash: _certificateHash,\n            issuer: msg.sender,\n            recipient: _recipientAddress,\n            issuanceTime: block.timestamp,\n            isRevoked: false,\n            revocationTime: 0\n        });\n\n        certificateExists[_certificateHash] = true;\n        recipientCertificates[_recipientAddress].push(_certificateHash);\n        issuerCertificates[msg.sender].push(_certificateHash);\n\n        recipientCertificateIndex[_recipientAddress][_certificateHash] = recipientCertificates[_recipientAddress].length - 1;\n        certificateCounter.increment();\n        issuerRegistry.incrementCertificateCount(msg.sender);\n        \n        emit CertificateIssued(_certificateHash, msg.sender, _recipientAddress, block.timestamp);    \n    }\n\n    function batchIssueCertificates(bytes32[] calldata _certificateHashes, address[] calldata _recipientAddresses)\n        external\n        onlyRegisteredIssuer\n        nonReentrant{\n        \n        require(_certificateHashes.length == _recipientAddresses.length, \"CertificateStore: Array length mismatch\");\n        require(_certificateHashes.length >0, \"CertificateStore: Empty arrays\");\n        require(_certificateHashes.length <= 100, \"CertificateStore: Batch too large (max 100)\");\n\n        for(uint256 i = 0;i < _certificateHashes.length; i++){\n            bytes32 certHash = _certificateHashes[i];\n            address recipient = _recipientAddresses[i];\n\n            require(certHash != bytes32(0), \"CertificateStore: Invalid hash in batch\");\n            require(recipient != address(0), \"CertificateStore: Invalid address in batch\");\n            require(!certificateExists[certHash],\"CertificateStore: Duplicate certification in batch\");\n\n            certificates[certHash] = Certificate({\n                certificateHash: certHash,\n                issuer: msg.sender,\n                recipient: recipient,\n                issuanceTime: block.timestamp,\n                isRevoked: false,\n                revocationTime: 0\n            });\n            certificateExists[certHash] = true;\n            recipientCertificates[recipient].push(certHash);\n            issuerCertificates[msg.sender].push(certHash);\n            recipientCertificateIndex[recipient][certHash] = recipientCertificates[recipient].length-1;\n\n            certificateCounter.increment();\n\n            emit CertificateIssued(certHash, msg.sender, recipient, block.timestamp);\n        }\n        for(uint256 i = 0; i < _certificateHashes.length; i++){\n            issuerRegistry.incrementCertificateCount(msg.sender);\n        }\n        emit BatchCertificatesIssued(msg.sender, _certificateHashes.length, block.timestamp);\n\n    }\n\n    function verifyCertificate(bytes32 _certificateHash)\n        external\n        view\n        validHash(_certificateHash)\n        returns(bool isValid, address issuer, address recipient, uint256 issuanceTime, bool isRevoked, string memory issuerName){\n\n        if(!certificateExists[_certificateHash]){\n            return(false, address(0), address(0), 0, false, \"\");\n        }\n        Certificate memory cert = certificates[_certificateHash];\n        string memory name = \"\";\n        try issuerRegistry.getIssuerName(cert.issuer) returns (string memory _name){\n            name = _name;\n        }catch{\n            name = \"Unknown Issuer\";\n        }\n\n        return(true, cert.issuer, cert.recipient, cert.issuanceTime, cert.isRevoked, name);\n    }\n\n    function isCertificateValid(bytes32 _certificateHash)\n        external\n        view\n        returns (bool){\n\n        if(!certificateExists[_certificateHash]){\n            return false;\n        }\n        return !certificates[_certificateHash].isRevoked;\n    }\n\n    function revokeCertificate(bytes32 _certificateHash)\n        external\n        onlyRegisteredIssuer\n        certificateMustExist(_certificateHash)\n        onlyIssuerOfCertificate(_certificateHash)\n        nonReentrant{\n\n        Certificate storage cert = certificates[_certificateHash];\n        require(!cert.isRevoked, \"CertificateStore: Certificate already revoked\");\n        cert.isRevoked = true;\n        cert.revocationTime = block.timestamp;\n\n        emit CertificateRevoked(_certificateHash, msg.sender, block.timestamp);\n    }\n\n    function getCertificateDetails(bytes32 _certificateHash)\n        external\n        view\n        certificateMustExist(_certificateHash)\n        returns (\n            bytes32 certificateHash,\n            address issuer,\n            address recipient,\n            uint256 issuanceTime,\n            bool isRevoked,\n            uint256 revocationTime\n        ){\n        \n        Certificate memory cert = certificates[_certificateHash];\n        return (\n            cert.certificateHash,\n            cert.issuer,\n            cert.recipient,\n            cert.issuanceTime,\n            cert.isRevoked,\n            cert.revocationTime\n        );\n    }\n\n    function getCertificatesForRecipient(address _recipientAddress, uint256 _start, uint256 _limit)\n    external\n    view\n    validAddress(_recipientAddress)\n    returns (bytes32[] memory hashes, bool hasMore) {\n        bytes32[] storage recipientCerts = recipientCertificates[_recipientAddress];\n        require(_start < recipientCerts.length || recipientCerts.length == 0, \"CertifiateStore: Start index out of bounds\");\n        uint256 end = _start + _limit;\n        if(end > recipientCerts.length){\n            end = recipientCerts.length;\n        }\n\n        hashes = new bytes32[](end - _start);\n        for(uint256 i = _start; i < end; i++){\n            hashes[i - _start] = recipientCerts[i];\n        }\n        hasMore = end < recipientCerts.length;\n    }\n\n    // function getCertificatesIssuedBy(){}\n\n    function getTotalCertificates() external view returns (uint256){\n        return certificateCounter.current();\n    }\n\n    // function getRecipientCertificateCount(){}\n\n    function getContractStats() external view returns(\n        uint256 totalCertificates, uint256 totalRevoked\n    ){\n        totalCertificates = certificateCounter.current();\n        totalRevoked = 0;\n    }\n}\n",
  "sourcePath": "contracts/CertificateStore.sol",
  "type": "contract"
}