{
  "abi": [
    {
      "inputs": [],
      "stateMutability": "nonpayable",
      "type": "constructor"
    },
    {
      "anonymous": false,
      "inputs": [
        {
          "indexed": true,
          "internalType": "address",
          "name": "issuerAddress",
          "type": "address"
        },
        {
          "indexed": false,
          "internalType": "uint256",
          "name": "newCount",
          "type": "uint256"
        }
      ],
      "name": "CertificateCountUpdated",
      "type": "event"
    },
    {
      "anonymous": false,
      "inputs": [
        {
          "indexed": true,
          "internalType": "address",
          "name": "issuerAddress",
          "type": "address"
        },
        {
          "indexed": false,
          "internalType": "uint256",
          "name": "timestamp",
          "type": "uint256"
        }
      ],
      "name": "IssuerDeactivated",
      "type": "event"
    },
    {
      "anonymous": false,
      "inputs": [
        {
          "indexed": true,
          "internalType": "address",
          "name": "issuerAddress",
          "type": "address"
        },
        {
          "indexed": false,
          "internalType": "uint256",
          "name": "timestamp",
          "type": "uint256"
        }
      ],
      "name": "IssuerReactivated",
      "type": "event"
    },
    {
      "anonymous": false,
      "inputs": [
        {
          "indexed": true,
          "internalType": "address",
          "name": "issuerAddress",
          "type": "address"
        },
        {
          "indexed": false,
          "internalType": "string",
          "name": "name",
          "type": "string"
        },
        {
          "indexed": false,
          "internalType": "string",
          "name": "location",
          "type": "string"
        },
        {
          "indexed": false,
          "internalType": "uint256",
          "name": "timestamp",
          "type": "uint256"
        }
      ],
      "name": "IssuerRegistered",
      "type": "event"
    },
    {
      "anonymous": false,
      "inputs": [
        {
          "indexed": true,
          "internalType": "address",
          "name": "IssuerAddress",
          "type": "address"
        },
        {
          "indexed": false,
          "internalType": "string",
          "name": "name",
          "type": "string"
        },
        {
          "indexed": false,
          "internalType": "string",
          "name": "location",
          "type": "string"
        },
        {
          "indexed": false,
          "internalType": "uint256",
          "name": "timestamp",
          "type": "uint256"
        }
      ],
      "name": "IssuerUpdated",
      "type": "event"
    },
    {
      "anonymous": false,
      "inputs": [
        {
          "indexed": true,
          "internalType": "address",
          "name": "previousOwner",
          "type": "address"
        },
        {
          "indexed": true,
          "internalType": "address",
          "name": "newOwner",
          "type": "address"
        }
      ],
      "name": "OwnershipTransferred",
      "type": "event"
    },
    {
      "inputs": [
        {
          "internalType": "address",
          "name": "_issuerAddress",
          "type": "address"
        }
      ],
      "name": "deactivateIssuer",
      "outputs": [],
      "stateMutability": "nonpayable",
      "type": "function"
    },
    {
      "inputs": [
        {
          "internalType": "uint256",
          "name": "_start",
          "type": "uint256"
        },
        {
          "internalType": "uint256",
          "name": "_limit",
          "type": "uint256"
        }
      ],
      "name": "getActiveIssuers",
      "outputs": [
        {
          "internalType": "address[]",
          "name": "addresses",
          "type": "address[]"
        },
        {
          "internalType": "string[]",
          "name": "names",
          "type": "string[]"
        },
        {
          "internalType": "bool",
          "name": "hasMore",
          "type": "bool"
        }
      ],
      "stateMutability": "view",
      "type": "function"
    },
    {
      "inputs": [
        {
          "internalType": "uint256",
          "name": "_start",
          "type": "uint256"
        },
        {
          "internalType": "uint256",
          "name": "_limit",
          "type": "uint256"
        }
      ],
      "name": "getAllIssuers",
      "outputs": [
        {
          "internalType": "address[]",
          "name": "addresses",
          "type": "address[]"
        },
        {
          "internalType": "bool",
          "name": "hasMore",
          "type": "bool"
        }
      ],
      "stateMutability": "view",
      "type": "function"
    },
    {
      "inputs": [],
      "name": "getContractStats",
      "outputs": [
        {
          "internalType": "uint256",
          "name": "totalRegistered",
          "type": "uint256"
        },
        {
          "internalType": "uint256",
          "name": "totalActive",
          "type": "uint256"
        },
        {
          "internalType": "uint256",
          "name": "totalCertificates",
          "type": "uint256"
        }
      ],
      "stateMutability": "view",
      "type": "function"
    },
    {
      "inputs": [
        {
          "internalType": "address",
          "name": "_issuerAddress",
          "type": "address"
        }
      ],
      "name": "getIssuerInfo",
      "outputs": [
        {
          "internalType": "string",
          "name": "name",
          "type": "string"
        },
        {
          "internalType": "string",
          "name": "location",
          "type": "string"
        },
        {
          "internalType": "uint256",
          "name": "registrationTime",
          "type": "uint256"
        },
        {
          "internalType": "bool",
          "name": "isActive",
          "type": "bool"
        },
        {
          "internalType": "uint256",
          "name": "totalCertificatesIssued",
          "type": "uint256"
        }
      ],
      "stateMutability": "view",
      "type": "function"
    },
    {
      "inputs": [
        {
          "internalType": "address",
          "name": "_issuerAddress",
          "type": "address"
        }
      ],
      "name": "getIssuerName",
      "outputs": [
        {
          "internalType": "string",
          "name": "",
          "type": "string"
        }
      ],
      "stateMutability": "view",
      "type": "function"
    },
    {
      "inputs": [],
      "name": "getTotalIssuers",
      "outputs": [
        {
          "internalType": "uint256",
          "name": "",
          "type": "uint256"
        }
      ],
      "stateMutability": "view",
      "type": "function"
    },
    {
      "inputs": [
        {
          "internalType": "address",
          "name": "_issuerAddress",
          "type": "address"
        }
      ],
      "name": "incrementCertificateCount",
      "outputs": [],
      "stateMutability": "nonpayable",
      "type": "function"
    },
    {
      "inputs": [
        {
          "internalType": "address",
          "name": "_issuerAddress",
          "type": "address"
        }
      ],
      "name": "isAddressRegistered",
      "outputs": [
        {
          "internalType": "bool",
          "name": "",
          "type": "bool"
        }
      ],
      "stateMutability": "view",
      "type": "function"
    },
    {
      "inputs": [
        {
          "internalType": "address",
          "name": "_issuerAddress",
          "type": "address"
        }
      ],
      "name": "isRegisteredIssuer",
      "outputs": [
        {
          "internalType": "bool",
          "name": "",
          "type": "bool"
        }
      ],
      "stateMutability": "view",
      "type": "function"
    },
    {
      "inputs": [],
      "name": "owner",
      "outputs": [
        {
          "internalType": "address",
          "name": "",
          "type": "address"
        }
      ],
      "stateMutability": "view",
      "type": "function"
    },
    {
      "inputs": [
        {
          "internalType": "address",
          "name": "_issuerAddress",
          "type": "address"
        }
      ],
      "name": "reactivateIssuer",
      "outputs": [],
      "stateMutability": "nonpayable",
      "type": "function"
    },
    {
      "inputs": [
        {
          "internalType": "address",
          "name": "_issuerAddress",
          "type": "address"
        },
        {
          "internalType": "string",
          "name": "_name",
          "type": "string"
        },
        {
          "internalType": "string",
          "name": "_location",
          "type": "string"
        }
      ],
      "name": "registerIssuer",
      "outputs": [],
      "stateMutability": "nonpayable",
      "type": "function"
    },
    {
      "inputs": [],
      "name": "renounceOwnership",
      "outputs": [],
      "stateMutability": "nonpayable",
      "type": "function"
    },
    {
      "inputs": [
        {
          "internalType": "address",
          "name": "newOwner",
          "type": "address"
        }
      ],
      "name": "transferOwnership",
      "outputs": [],
      "stateMutability": "nonpayable",
      "type": "function"
    },
    {
      "inputs": [
        {
          "internalType": "address",
          "name": "_issuerAddress",
          "type": "address"
        },
        {
          "internalType": "string",
          "name": "_name",
          "type": "string"
        },
        {
          "internalType": "string",
          "name": "_location",
          "type": "string"
        }
      ],
      "name": "updateIssuer",
      "outputs": [],
      "stateMutability": "nonpayable",
      "type": "function"
    }
  ],
  "bytecode": "608060405234801561001057600080fd5b5061001a33610023565b60018055610073565b600080546001600160a01b038381166001600160a01b0319831681178455604051919092169283917f8be0079c531659141344cd1fd0a4f28419497f9722a3daafe3b4186f6b6457e09190a35050565b611ba5806100826000396000f3fe608060405234801561001057600080fd5b50600436106101005760003560e01c8063715018a611610097578063c6e020c711610066578063c6e020c714610255578063dfe6b5d614610266578063f2fde38b14610289578063f466fe131461029c57600080fd5b8063715018a6146101fd5780637a009135146102055780638da5cb5b14610218578063a23d6b4a1461023357600080fd5b8063451c3671116100d3578063451c3671146101925780635d8081bf146101a55780635e9aab70146101c657806363e41021146101ea57600080fd5b806307ec312a146101055780631b76637e1461012e5780632d33d7d51461014357806338b6a3a114610166575b600080fd5b6101186101133660046114df565b6102af565b6040516101259190611547565b60405180910390f35b61014161013c3660046114df565b6103c3565b005b6101566101513660046114df565b61051c565b6040519015158152602001610125565b6101566101743660046114df565b6001600160a01b031660009081526004602052604090205460ff1690565b6101416101a03660046115fd565b610565565b6101b86101b3366004611671565b6106fb565b6040516101259291906116d7565b6101d96101d43660046114df565b610832565b6040516101259594939291906116fb565b6101416101f83660046115fd565b610a71565b610141610cf3565b6101416102133660046114df565b610d07565b6000546040516001600160a01b039091168152602001610125565b610246610241366004611671565b610e4a565b6040516101259392919061173e565b600554604051908152602001610125565b61026e6111b7565b60408051938452602084019290925290820152606001610125565b6101416102973660046114df565b611268565b6101416102aa3660046114df565b6112e1565b6060816001600160a01b0381166102e15760405162461bcd60e51b81526004016102d8906117bb565b60405180910390fd5b6001600160a01b03831660009081526004602052604090205460ff166103195760405162461bcd60e51b81526004016102d8906117f2565b6001600160a01b0383166000908152600260205260409020805461033c90611837565b80601f016020809104026020016040519081016040528092919081815260200182805461036890611837565b80156103b55780601f1061038a576101008083540402835291602001916103b5565b820191906000526020600020905b81548152906001019060200180831161039857829003601f168201915b505050505091505b50919050565b6103cb6113c0565b806001600160a01b0381166103f25760405162461bcd60e51b81526004016102d8906117bb565b6103fa61141a565b6001600160a01b03821660009081526004602052604090205460ff166104325760405162461bcd60e51b81526004016102d89061186b565b6001600160a01b03821660009081526002602052604090206003015460ff16156104af5760405162461bcd60e51b815260206004820152602860248201527f49737375657252656769737472793a2049737375657220697320616c72656164604482015267792061637469766560c01b60648201526084016102d8565b6001600160a01b03821660008181526002602052604090819020600301805460ff19166001179055517fbbac641da8ffcc509ce22b19dd0148b9563c9ee610dd9daeac2135fc6014a822906105079042815260200190565b60405180910390a261051860018055565b5050565b6001600160a01b03811660009081526004602052604081205460ff16801561055f57506001600160a01b03821660009081526002602052604090206003015460ff165b92915050565b61056d6113c0565b826001600160a01b0381166105945760405162461bcd60e51b81526004016102d8906117bb565b8260008151116105b65760405162461bcd60e51b81526004016102d8906118b1565b60c8815111156105d85760405162461bcd60e51b81526004016102d8906118f7565b8260008151116105fa5760405162461bcd60e51b81526004016102d8906118b1565b60c88151111561061c5760405162461bcd60e51b81526004016102d8906118f7565b61062461141a565b6001600160a01b03861660009081526004602052604090205460ff1661065c5760405162461bcd60e51b81526004016102d89061186b565b6001600160a01b038616600090815260026020526040902061067e8682611979565b506001600160a01b03861660009081526002602052604090206001016106a48582611979565b50856001600160a01b03167fbcc21d9c4b4590f46b181515ac40d4fad6cbd1b24440b56d137f8800a818f2f78686426040516106e293929190611a39565b60405180910390a26106f360018055565b505050505050565b6060600080831161071e5760405162461bcd60e51b81526004016102d890611a6f565b600354841061073f5760405162461bcd60e51b81526004016102d890611abb565b600061074b8486611b1a565b60035490915081111561075d57506003545b6107678582611b2d565b67ffffffffffffffff81111561077f5761077f61155a565b6040519080825280602002602001820160405280156107a8578160200160208202803683370190505b509250845b8181101561082257600381815481106107c8576107c8611b40565b6000918252602090912001546001600160a01b0316846107e88884611b2d565b815181106107f8576107f8611b40565b6001600160a01b03909216602092830291909101909101528061081a81611b56565b9150506107ad565b5060035492959211935090915050565b60608060008080856001600160a01b0381166108605760405162461bcd60e51b81526004016102d8906117bb565b6001600160a01b03871660009081526004602052604090205460ff166108d75760405162461bcd60e51b815260206004820152602660248201527f49737375657252656769737472793a2041646472657373206e6f7420726567696044820152651cdd195c995960d21b60648201526084016102d8565b6001600160a01b038716600090815260026020526040808220815160a0810190925280548290829061090890611837565b80601f016020809104026020016040519081016040528092919081815260200182805461093490611837565b80156109815780601f1061095657610100808354040283529160200191610981565b820191906000526020600020905b81548152906001019060200180831161096457829003601f168201915b5050505050815260200160018201805461099a90611837565b80601f01602080910402602001604051908101604052809291908181526020018280546109c690611837565b8015610a135780601f106109e857610100808354040283529160200191610a13565b820191906000526020600020905b8154815290600101906020018083116109f657829003601f168201915b50505091835250506002820154602080830191909152600383015460ff1615156040808401919091526004909301546060928301528351908401519284015191840151608090940151909c929b509099509197509095509350505050565b610a796113c0565b826001600160a01b038116610aa05760405162461bcd60e51b81526004016102d8906117bb565b826000815111610ac25760405162461bcd60e51b81526004016102d8906118b1565b60c881511115610ae45760405162461bcd60e51b81526004016102d8906118f7565b826000815111610b065760405162461bcd60e51b81526004016102d8906118b1565b60c881511115610b285760405162461bcd60e51b81526004016102d8906118f7565b610b3061141a565b6001600160a01b03861660009081526004602052604090205460ff1615610bac5760405162461bcd60e51b815260206004820152602a60248201527f49737375657252656769737472793a2049737375657220616c7265616479207260448201526932b3b4b9ba32b932b21760b11b60648201526084016102d8565b6040805160a08101825286815260208082018790524282840152600160608301526000608083018190526001600160a01b038a16815260029091529190912081518190610bf99082611979565b5060208201516001820190610c0e9082611979565b50604082810151600283015560608301516003808401805492151560ff199384161790556080909401516004938401556001600160a01b038a16600081815260209490945291832080549091166001908117909155835490810184559282527fc2575a0e9e593c00f959f8c92f12db2869c3395a3b0502d05e2516446f71f85b90920180546001600160a01b0319169092179091556005805491610cb183611b56565b9190505550856001600160a01b03167fb90fab3f509b58e3f490dae1e5c582e8fde219064c5b98889d1a22f99fd38e848686426040516106e293929190611a39565b610cfb6113c0565b610d056000611473565b565b610d0f6113c0565b806001600160a01b038116610d365760405162461bcd60e51b81526004016102d8906117bb565b610d3e61141a565b6001600160a01b03821660009081526004602052604090205460ff16610d765760405162461bcd60e51b81526004016102d89061186b565b6001600160a01b03821660009081526002602052604090206003015460ff16610df55760405162461bcd60e51b815260206004820152602b60248201527f49737375657252656769737472793a2049737375657220697320616c7265616460448201526a3c9034b730b1ba34bb329760a91b60648201526084016102d8565b6001600160a01b03821660008181526002602052604090819020600301805460ff19169055517f586aa13012da4d969863a6facf031a08a22f65dbae68786e4de5261d411a60d8906105079042815260200190565b6060806000808411610e6e5760405162461bcd60e51b81526004016102d890611a6f565b6000805b600354811015610ee3576002600060038381548110610e9357610e93611b40565b60009182526020808320909101546001600160a01b0316835282019290925260400190206003015460ff1615610ed15781610ecd81611b56565b9250505b80610edb81611b56565b915050610e72565b50808610610f035760405162461bcd60e51b81526004016102d890611abb565b6000610f0f8688611b1a565b905081811115610f1c5750805b610f268782611b2d565b67ffffffffffffffff811115610f3e57610f3e61155a565b604051908082528060200260200182016040528015610f67578160200160208202803683370190505b509450610f748782611b2d565b67ffffffffffffffff811115610f8c57610f8c61155a565b604051908082528060200260200182016040528015610fbf57816020015b6060815260200190600190039081610faa5790505b50935060008060005b60035481108015610fe15750610fde8a85611b2d565b82105b156111a7576002600060038381548110610ffd57610ffd611b40565b60009182526020808320909101546001600160a01b0316835282019290925260400190206003015460ff161561119557898310611187576003818154811061104757611047611b40565b9060005260206000200160009054906101000a90046001600160a01b031688838151811061107757611077611b40565b60200260200101906001600160a01b031690816001600160a01b03168152505060026000600383815481106110ae576110ae611b40565b60009182526020808320909101546001600160a01b03168352820192909252604001902080546110dd90611837565b80601f016020809104026020016040519081016040528092919081815260200182805461110990611837565b80156111565780601f1061112b57610100808354040283529160200191611156565b820191906000526020600020905b81548152906001019060200180831161113957829003601f168201915b505050505087838151811061116d5761116d611b40565b6020026020010181905250818061118390611b56565b9250505b8261119181611b56565b9350505b8061119f81611b56565b915050610fc8565b5095989497505010935090915050565b6005546000808080805b60035481101561125d576000600382815481106111e0576111e0611b40565b60009182526020808320909101546001600160a01b0316808352600290915260409091206003015490915060ff1615611221578361121d81611b56565b9450505b6001600160a01b0381166000908152600260205260409020600401546112479084611b1a565b925050808061125590611b56565b9150506111c1565b509394909392509050565b6112706113c0565b6001600160a01b0381166112d55760405162461bcd60e51b815260206004820152602660248201527f4f776e61626c653a206e6577206f776e657220697320746865207a65726f206160448201526564647265737360d01b60648201526084016102d8565b6112de81611473565b50565b806001600160a01b0381166113085760405162461bcd60e51b81526004016102d8906117bb565b6001600160a01b03821660009081526004602052604090205460ff166113405760405162461bcd60e51b81526004016102d8906117f2565b6001600160a01b038216600090815260026020526040812060040180549161136783611b56565b90915550506001600160a01b0382166000818152600260209081526040918290206004015491519182527f33c8da3aecae4a969f49a362298d863e97ee28a279a91f33828222feec7c3bd7910160405180910390a25050565b6000546001600160a01b03163314610d055760405162461bcd60e51b815260206004820181905260248201527f4f776e61626c653a2063616c6c6572206973206e6f7420746865206f776e657260448201526064016102d8565b60026001540361146c5760405162461bcd60e51b815260206004820152601f60248201527f5265656e7472616e637947756172643a207265656e7472616e742063616c6c0060448201526064016102d8565b6002600155565b600080546001600160a01b038381166001600160a01b0319831681178455604051919092169283917f8be0079c531659141344cd1fd0a4f28419497f9722a3daafe3b4186f6b6457e09190a35050565b80356001600160a01b03811681146114da57600080fd5b919050565b6000602082840312156114f157600080fd5b6114fa826114c3565b9392505050565b6000815180845260005b818110156115275760208185018101518683018201520161150b565b506000602082860101526020601f19601f83011685010191505092915050565b6020815260006114fa6020830184611501565b634e487b7160e01b600052604160045260246000fd5b600082601f83011261158157600080fd5b813567ffffffffffffffff8082111561159c5761159c61155a565b604051601f8301601f19908116603f011681019082821181831017156115c4576115c461155a565b816040528381528660208588010111156115dd57600080fd5b836020870160208301376000602085830101528094505050505092915050565b60008060006060848603121561161257600080fd5b61161b846114c3565b9250602084013567ffffffffffffffff8082111561163857600080fd5b61164487838801611570565b9350604086013591508082111561165a57600080fd5b5061166786828701611570565b9150509250925092565b6000806040838503121561168457600080fd5b50508035926020909101359150565b600081518084526020808501945080840160005b838110156116cc5781516001600160a01b0316875295820195908201906001016116a7565b509495945050505050565b6040815260006116ea6040830185611693565b905082151560208301529392505050565b60a08152600061170e60a0830188611501565b82810360208401526117208188611501565b60408401969096525050911515606083015260809091015292915050565b6060815260006117516060830186611693565b6020838203818501528186518084528284019150828160051b85010183890160005b838110156117a157601f1987840301855261178f838351611501565b94860194925090850190600101611773565b505080955050505050508215156040830152949350505050565b6020808252601f908201527f49737375657252656769737472793a20496e76616c6964206164647265737300604082015260600190565b60208082526025908201527f49737375657252656769737472793a20497373756572206e6f742072656769736040820152641d195c995960da1b606082015260800190565b600181811c9082168061184b57607f821691505b6020821081036103bd57634e487b7160e01b600052602260045260246000fd5b60208082526026908201527f49737375657252656769737472793a20497373756572206e6f742072656769736040820152653a32b932b21760d11b606082015260800190565b60208082526026908201527f49737375657252656769737472793a20537472696e672063616e6e6f7420626560408201526520656d70747960d01b606082015260800190565b6020808252601f908201527f49737375657252656769737472793a20537472696e6720746f6f206c6f6e6700604082015260600190565b601f82111561197457600081815260208120601f850160051c810160208610156119555750805b601f850160051c820191505b818110156106f357828155600101611961565b505050565b815167ffffffffffffffff8111156119935761199361155a565b6119a7816119a18454611837565b8461192e565b602080601f8311600181146119dc57600084156119c45750858301515b600019600386901b1c1916600185901b1785556106f3565b600085815260208120601f198616915b82811015611a0b578886015182559484019460019091019084016119ec565b5085821015611a295787850151600019600388901b60f8161c191681555b5050505050600190811b01905550565b606081526000611a4c6060830186611501565b8281036020840152611a5e8186611501565b915050826040830152949350505050565b6020808252602c908201527f49737375657252656769737472793a204c696d6974206d75737420626520677260408201526b06561746572207468616e20360a41b606082015260800190565b60208082526029908201527f49737375657252656769737472793a20537461727420696e646578206f7574206040820152686f6620626f756e647360b81b606082015260800190565b634e487b7160e01b600052601160045260246000fd5b8082018082111561055f5761055f611b04565b8181038181111561055f5761055f611b04565b634e487b7160e01b600052603260045260246000fd5b600060018201611b6857611b68611b04565b506001019056fea2646970667358221220a2ba102f2fa1fffceffd2db1c830ae63af685eff8788012c25fc4c13e814638064736f6c63430008130033",
  "bytecodeSha1": "15d73fbc401d0cea6619e7cfd0e1c88c94b8b1bd",
  "compiler": {
    "evm_version": "istanbul",
    "optimizer": {
      "enabled": true,
      "runs": 200
    },
    "version": "0.8.19+commit.7dd6d404"
  },
  "contractName": "IssuerRegistry",
  "language": "Solidity",
  "natspec": {
    "kind": "dev",
    "methods": {
      "owner()": {
        "details": "Returns the address of the current owner."
      },
      "renounceOwnership()": {
        "details": "Leaves the contract without owner. It will not be possible to call `onlyOwner` functions. Can only be called by the current owner. NOTE: Renouncing ownership will leave the contract without an owner, thereby disabling any functionality that is only available to the owner."
      },
      "transferOwnership(address)": {
        "details": "Transfers ownership of the contract to a new account (`newOwner`). Can only be called by the current owner."
      }
    },
    "version": 1
  },
  "opcodes": "PUSH1 0x80 PUSH1 0x40 MSTORE CALLVALUE DUP1 ISZERO PUSH2 0x10 JUMPI PUSH1 0x0 DUP1 REVERT JUMPDEST POP PUSH1 0x4 CALLDATASIZE LT PUSH2 0x100 JUMPI PUSH1 0x0 CALLDATALOAD PUSH1 0xE0 SHR DUP1 PUSH4 0x715018A6 GT PUSH2 0x97 JUMPI DUP1 PUSH4 0xC6E020C7 GT PUSH2 0x66 JUMPI DUP1 PUSH4 0xC6E020C7 EQ PUSH2 0x255 JUMPI DUP1 PUSH4 0xDFE6B5D6 EQ PUSH2 0x266 JUMPI DUP1 PUSH4 0xF2FDE38B EQ PUSH2 0x289 JUMPI DUP1 PUSH4 0xF466FE13 EQ PUSH2 0x29C JUMPI PUSH1 0x0 DUP1 REVERT JUMPDEST DUP1 PUSH4 0x715018A6 EQ PUSH2 0x1FD JUMPI DUP1 PUSH4 0x7A009135 EQ PUSH2 0x205 JUMPI DUP1 PUSH4 0x8DA5CB5B EQ PUSH2 0x218 JUMPI DUP1 PUSH4 0xA23D6B4A EQ PUSH2 0x233 JUMPI PUSH1 0x0 DUP1 REVERT JUMPDEST DUP1 PUSH4 0x451C3671 GT PUSH2 0xD3 JUMPI DUP1 PUSH4 0x451C3671 EQ PUSH2 0x192 JUMPI DUP1 PUSH4 0x5D8081BF EQ PUSH2 0x1A5 JUMPI DUP1 PUSH4 0x5E9AAB70 EQ PUSH2 0x1C6 JUMPI DUP1 PUSH4 0x63E41021 EQ PUSH2 0x1EA JUMPI PUSH1 0x0 DUP1 REVERT JUMPDEST DUP1 PUSH4 0x7EC312A EQ PUSH2 0x105 JUMPI DUP1 PUSH4 0x1B76637E EQ PUSH2 0x12E JUMPI DUP1 PUSH4 0x2D33D7D5 EQ PUSH2 0x143 JUMPI DUP1 PUSH4 0x38B6A3A1 EQ PUSH2 0x166 JUMPI JUMPDEST PUSH1 0x0 DUP1 REVERT JUMPDEST PUSH2 0x118 PUSH2 0x113 CALLDATASIZE PUSH1 0x4 PUSH2 0x14DF JUMP JUMPDEST PUSH2 0x2AF JUMP JUMPDEST PUSH1 0x40 MLOAD PUSH2 0x125 SWAP2 SWAP1 PUSH2 0x1547 JUMP JUMPDEST PUSH1 0x40 MLOAD DUP1 SWAP2 SUB SWAP1 RETURN JUMPDEST PUSH2 0x141 PUSH2 0x13C CALLDATASIZE PUSH1 0x4 PUSH2 0x14DF JUMP JUMPDEST PUSH2 0x3C3 JUMP JUMPDEST STOP JUMPDEST PUSH2 0x156 PUSH2 0x151 CALLDATASIZE PUSH1 0x4 PUSH2 0x14DF JUMP JUMPDEST PUSH2 0x51C JUMP JUMPDEST PUSH1 0x40 MLOAD SWAP1 ISZERO ISZERO DUP2 MSTORE PUSH1 0x20 ADD PUSH2 0x125 JUMP JUMPDEST PUSH2 0x156 PUSH2 0x174 CALLDATASIZE PUSH1 0x4 PUSH2 0x14DF JUMP JUMPDEST PUSH1 0x1 PUSH1 0x1 PUSH1 0xA0 SHL SUB AND PUSH1 0x0 SWAP1 DUP2 MSTORE PUSH1 0x4 PUSH1 0x20 MSTORE PUSH1 0x40 SWAP1 KECCAK256 SLOAD PUSH1 0xFF AND SWAP1 JUMP JUMPDEST PUSH2 0x141 PUSH2 0x1A0 CALLDATASIZE PUSH1 0x4 PUSH2 0x15FD JUMP JUMPDEST PUSH2 0x565 JUMP JUMPDEST PUSH2 0x1B8 PUSH2 0x1B3 CALLDATASIZE PUSH1 0x4 PUSH2 0x1671 JUMP JUMPDEST PUSH2 0x6FB JUMP JUMPDEST PUSH1 0x40 MLOAD PUSH2 0x125 SWAP3 SWAP2 SWAP1 PUSH2 0x16D7 JUMP JUMPDEST PUSH2 0x1D9 PUSH2 0x1D4 CALLDATASIZE PUSH1 0x4 PUSH2 0x14DF JUMP JUMPDEST PUSH2 0x832 JUMP JUMPDEST PUSH1 0x40 MLOAD PUSH2 0x125 SWAP6 SWAP5 SWAP4 SWAP3 SWAP2 SWAP1 PUSH2 0x16FB JUMP JUMPDEST PUSH2 0x141 PUSH2 0x1F8 CALLDATASIZE PUSH1 0x4 PUSH2 0x15FD JUMP JUMPDEST PUSH2 0xA71 JUMP JUMPDEST PUSH2 0x141 PUSH2 0xCF3 JUMP JUMPDEST PUSH2 0x141 PUSH2 0x213 CALLDATASIZE PUSH1 0x4 PUSH2 0x14DF JUMP JUMPDEST PUSH2 0xD07 JUMP JUMPDEST PUSH1 0x0 SLOAD PUSH1 0x40 MLOAD PUSH1 0x1 PUSH1 0x1 PUSH1 0xA0 SHL SUB SWAP1 SWAP2 AND DUP2 MSTORE PUSH1 0x20 ADD PUSH2 0x125 JUMP JUMPDEST PUSH2 0x246 PUSH2 0x241 CALLDATASIZE PUSH1 0x4 PUSH2 0x1671 JUMP JUMPDEST PUSH2 0xE4A JUMP JUMPDEST PUSH1 0x40 MLOAD PUSH2 0x125 SWAP4 SWAP3 SWAP2 SWAP1 PUSH2 0x173E JUMP JUMPDEST PUSH1 0x5 SLOAD PUSH1 0x40 MLOAD SWAP1 DUP2 MSTORE PUSH1 0x20 ADD PUSH2 0x125 JUMP JUMPDEST PUSH2 0x26E PUSH2 0x11B7 JUMP JUMPDEST PUSH1 0x40 DUP1 MLOAD SWAP4 DUP5 MSTORE PUSH1 0x20 DUP5 ADD SWAP3 SWAP1 SWAP3 MSTORE SWAP1 DUP3 ADD MSTORE PUSH1 0x60 ADD PUSH2 0x125 JUMP JUMPDEST PUSH2 0x141 PUSH2 0x297 CALLDATASIZE PUSH1 0x4 PUSH2 0x14DF JUMP JUMPDEST PUSH2 0x1268 JUMP JUMPDEST PUSH2 0x141 PUSH2 0x2AA CALLDATASIZE PUSH1 0x4 PUSH2 0x14DF JUMP JUMPDEST PUSH2 0x12E1 JUMP JUMPDEST PUSH1 0x60 DUP2 PUSH1 0x1 PUSH1 0x1 PUSH1 0xA0 SHL SUB DUP2 AND PUSH2 0x2E1 JUMPI PUSH1 0x40 MLOAD PUSH3 0x461BCD PUSH1 0xE5 SHL DUP2 MSTORE PUSH1 0x4 ADD PUSH2 0x2D8 SWAP1 PUSH2 0x17BB JUMP JUMPDEST PUSH1 0x40 MLOAD DUP1 SWAP2 SUB SWAP1 REVERT JUMPDEST PUSH1 0x1 PUSH1 0x1 PUSH1 0xA0 SHL SUB DUP4 AND PUSH1 0x0 SWAP1 DUP2 MSTORE PUSH1 0x4 PUSH1 0x20 MSTORE PUSH1 0x40 SWAP1 KECCAK256 SLOAD PUSH1 0xFF AND PUSH2 0x319 JUMPI PUSH1 0x40 MLOAD PUSH3 0x461BCD PUSH1 0xE5 SHL DUP2 MSTORE PUSH1 0x4 ADD PUSH2 0x2D8 SWAP1 PUSH2 0x17F2 JUMP JUMPDEST PUSH1 0x1 PUSH1 0x1 PUSH1 0xA0 SHL SUB DUP4 AND PUSH1 0x0 SWAP1 DUP2 MSTORE PUSH1 0x2 PUSH1 0x20 MSTORE PUSH1 0x40 SWAP1 KECCAK256 DUP1 SLOAD PUSH2 0x33C SWAP1 PUSH2 0x1837 JUMP JUMPDEST DUP1 PUSH1 0x1F ADD PUSH1 0x20 DUP1 SWAP2 DIV MUL PUSH1 0x20 ADD PUSH1 0x40 MLOAD SWAP1 DUP2 ADD PUSH1 0x40 MSTORE DUP1 SWAP3 SWAP2 SWAP1 DUP2 DUP2 MSTORE PUSH1 0x20 ADD DUP3 DUP1 SLOAD PUSH2 0x368 SWAP1 PUSH2 0x1837 JUMP JUMPDEST DUP1 ISZERO PUSH2 0x3B5 JUMPI DUP1 PUSH1 0x1F LT PUSH2 0x38A JUMPI PUSH2 0x100 DUP1 DUP4 SLOAD DIV MUL DUP4 MSTORE SWAP2 PUSH1 0x20 ADD SWAP2 PUSH2 0x3B5 JUMP JUMPDEST DUP3 ADD SWAP2 SWAP1 PUSH1 0x0 MSTORE PUSH1 0x20 PUSH1 0x0 KECCAK256 SWAP1 JUMPDEST DUP2 SLOAD DUP2 MSTORE SWAP1 PUSH1 0x1 ADD SWAP1 PUSH1 0x20 ADD DUP1 DUP4 GT PUSH2 0x398 JUMPI DUP3 SWAP1 SUB PUSH1 0x1F AND DUP3 ADD SWAP2 JUMPDEST POP POP POP POP POP SWAP2 POP JUMPDEST POP SWAP2 SWAP1 POP JUMP JUMPDEST PUSH2 0x3CB PUSH2 0x13C0 JUMP JUMPDEST DUP1 PUSH1 0x1 PUSH1 0x1 PUSH1 0xA0 SHL SUB DUP2 AND PUSH2 0x3F2 JUMPI PUSH1 0x40 MLOAD PUSH3 0x461BCD PUSH1 0xE5 SHL DUP2 MSTORE PUSH1 0x4 ADD PUSH2 0x2D8 SWAP1 PUSH2 0x17BB JUMP JUMPDEST PUSH2 0x3FA PUSH2 0x141A JUMP JUMPDEST PUSH1 0x1 PUSH1 0x1 PUSH1 0xA0 SHL SUB DUP3 AND PUSH1 0x0 SWAP1 DUP2 MSTORE PUSH1 0x4 PUSH1 0x20 MSTORE PUSH1 0x40 SWAP1 KECCAK256 SLOAD PUSH1 0xFF AND PUSH2 0x432 JUMPI PUSH1 0x40 MLOAD PUSH3 0x461BCD PUSH1 0xE5 SHL DUP2 MSTORE PUSH1 0x4 ADD PUSH2 0x2D8 SWAP1 PUSH2 0x186B JUMP JUMPDEST PUSH1 0x1 PUSH1 0x1 PUSH1 0xA0 SHL SUB DUP3 AND PUSH1 0x0 SWAP1 DUP2 MSTORE PUSH1 0x2 PUSH1 0x20 MSTORE PUSH1 0x40 SWAP1 KECCAK256 PUSH1 0x3 ADD SLOAD PUSH1 0xFF AND ISZERO PUSH2 0x4AF JUMPI PUSH1 0x40 MLOAD PUSH3 0x461BCD PUSH1 0xE5 SHL DUP2 MSTORE PUSH1 0x20 PUSH1 0x4 DUP3 ADD MSTORE PUSH1 0x28 PUSH1 0x24 DUP3 ADD MSTORE PUSH32 0x49737375657252656769737472793A2049737375657220697320616C72656164 PUSH1 0x44 DUP3 ADD MSTORE PUSH8 0x7920616374697665 PUSH1 0xC0 SHL PUSH1 0x64 DUP3 ADD MSTORE PUSH1 0x84 ADD PUSH2 0x2D8 JUMP JUMPDEST PUSH1 0x1 PUSH1 0x1 PUSH1 0xA0 SHL SUB DUP3 AND PUSH1 0x0 DUP2 DUP2 MSTORE PUSH1 0x2 PUSH1 0x20 MSTORE PUSH1 0x40 SWAP1 DUP2 SWAP1 KECCAK256 PUSH1 0x3 ADD DUP1 SLOAD PUSH1 0xFF NOT AND PUSH1 0x1 OR SWAP1 SSTORE MLOAD PUSH32 0xBBAC641DA8FFCC509CE22B19DD0148B9563C9EE610DD9DAEAC2135FC6014A822 SWAP1 PUSH2 0x507 SWAP1 TIMESTAMP DUP2 MSTORE PUSH1 0x20 ADD SWAP1 JUMP JUMPDEST PUSH1 0x40 MLOAD DUP1 SWAP2 SUB SWAP1 LOG2 PUSH2 0x518 PUSH1 0x1 DUP1 SSTORE JUMP JUMPDEST POP POP JUMP JUMPDEST PUSH1 0x1 PUSH1 0x1 PUSH1 0xA0 SHL SUB DUP2 AND PUSH1 0x0 SWAP1 DUP2 MSTORE PUSH1 0x4 PUSH1 0x20 MSTORE PUSH1 0x40 DUP2 KECCAK256 SLOAD PUSH1 0xFF AND DUP1 ISZERO PUSH2 0x55F JUMPI POP PUSH1 0x1 PUSH1 0x1 PUSH1 0xA0 SHL SUB DUP3 AND PUSH1 0x0 SWAP1 DUP2 MSTORE PUSH1 0x2 PUSH1 0x20 MSTORE PUSH1 0x40 SWAP1 KECCAK256 PUSH1 0x3 ADD SLOAD PUSH1 0xFF AND JUMPDEST SWAP3 SWAP2 POP POP JUMP JUMPDEST PUSH2 0x56D PUSH2 0x13C0 JUMP JUMPDEST DUP3 PUSH1 0x1 PUSH1 0x1 PUSH1 0xA0 SHL SUB DUP2 AND PUSH2 0x594 JUMPI PUSH1 0x40 MLOAD PUSH3 0x461BCD PUSH1 0xE5 SHL DUP2 MSTORE PUSH1 0x4 ADD PUSH2 0x2D8 SWAP1 PUSH2 0x17BB JUMP JUMPDEST DUP3 PUSH1 0x0 DUP2 MLOAD GT PUSH2 0x5B6 JUMPI PUSH1 0x40 MLOAD PUSH3 0x461BCD PUSH1 0xE5 SHL DUP2 MSTORE PUSH1 0x4 ADD PUSH2 0x2D8 SWAP1 PUSH2 0x18B1 JUMP JUMPDEST PUSH1 0xC8 DUP2 MLOAD GT ISZERO PUSH2 0x5D8 JUMPI PUSH1 0x40 MLOAD PUSH3 0x461BCD PUSH1 0xE5 SHL DUP2 MSTORE PUSH1 0x4 ADD PUSH2 0x2D8 SWAP1 PUSH2 0x18F7 JUMP JUMPDEST DUP3 PUSH1 0x0 DUP2 MLOAD GT PUSH2 0x5FA JUMPI PUSH1 0x40 MLOAD PUSH3 0x461BCD PUSH1 0xE5 SHL DUP2 MSTORE PUSH1 0x4 ADD PUSH2 0x2D8 SWAP1 PUSH2 0x18B1 JUMP JUMPDEST PUSH1 0xC8 DUP2 MLOAD GT ISZERO PUSH2 0x61C JUMPI PUSH1 0x40 MLOAD PUSH3 0x461BCD PUSH1 0xE5 SHL DUP2 MSTORE PUSH1 0x4 ADD PUSH2 0x2D8 SWAP1 PUSH2 0x18F7 JUMP JUMPDEST PUSH2 0x624 PUSH2 0x141A JUMP JUMPDEST PUSH1 0x1 PUSH1 0x1 PUSH1 0xA0 SHL SUB DUP7 AND PUSH1 0x0 SWAP1 DUP2 MSTORE PUSH1 0x4 PUSH1 0x20 MSTORE PUSH1 0x40 SWAP1 KECCAK256 SLOAD PUSH1 0xFF AND PUSH2 0x65C JUMPI PUSH1 0x40 MLOAD PUSH3 0x461BCD PUSH1 0xE5 SHL DUP2 MSTORE PUSH1 0x4 ADD PUSH2 0x2D8 SWAP1 PUSH2 0x186B JUMP JUMPDEST PUSH1 0x1 PUSH1 0x1 PUSH1 0xA0 SHL SUB DUP7 AND PUSH1 0x0 SWAP1 DUP2 MSTORE PUSH1 0x2 PUSH1 0x20 MSTORE PUSH1 0x40 SWAP1 KECCAK256 PUSH2 0x67E DUP7 DUP3 PUSH2 0x1979 JUMP JUMPDEST POP PUSH1 0x1 PUSH1 0x1 PUSH1 0xA0 SHL SUB DUP7 AND PUSH1 0x0 SWAP1 DUP2 MSTORE PUSH1 0x2 PUSH1 0x20 MSTORE PUSH1 0x40 SWAP1 KECCAK256 PUSH1 0x1 ADD PUSH2 0x6A4 DUP6 DUP3 PUSH2 0x1979 JUMP JUMPDEST POP DUP6 PUSH1 0x1 PUSH1 0x1 PUSH1 0xA0 SHL SUB AND PUSH32 0xBCC21D9C4B4590F46B181515AC40D4FAD6CBD1B24440B56D137F8800A818F2F7 DUP7 DUP7 TIMESTAMP PUSH1 0x40 MLOAD PUSH2 0x6E2 SWAP4 SWAP3 SWAP2 SWAP1 PUSH2 0x1A39 JUMP JUMPDEST PUSH1 0x40 MLOAD DUP1 SWAP2 SUB SWAP1 LOG2 PUSH2 0x6F3 PUSH1 0x1 DUP1 SSTORE JUMP JUMPDEST POP POP POP POP POP POP JUMP JUMPDEST PUSH1 0x60 PUSH1 0x0 DUP1 DUP4 GT PUSH2 0x71E JUMPI PUSH1 0x40 MLOAD PUSH3 0x461BCD PUSH1 0xE5 SHL DUP2 MSTORE PUSH1 0x4 ADD PUSH2 0x2D8 SWAP1 PUSH2 0x1A6F JUMP JUMPDEST PUSH1 0x3 SLOAD DUP5 LT PUSH2 0x73F JUMPI PUSH1 0x40 MLOAD PUSH3 0x461BCD PUSH1 0xE5 SHL DUP2 MSTORE PUSH1 0x4 ADD PUSH2 0x2D8 SWAP1 PUSH2 0x1ABB JUMP JUMPDEST PUSH1 0x0 PUSH2 0x74B DUP5 DUP7 PUSH2 0x1B1A JUMP JUMPDEST PUSH1 0x3 SLOAD SWAP1 SWAP2 POP DUP2 GT ISZERO PUSH2 0x75D JUMPI POP PUSH1 0x3 SLOAD JUMPDEST PUSH2 0x767 DUP6 DUP3 PUSH2 0x1B2D JUMP JUMPDEST PUSH8 0xFFFFFFFFFFFFFFFF DUP2 GT ISZERO PUSH2 0x77F JUMPI PUSH2 0x77F PUSH2 0x155A JUMP JUMPDEST PUSH1 0x40 MLOAD SWAP1 DUP1 DUP3 MSTORE DUP1 PUSH1 0x20 MUL PUSH1 0x20 ADD DUP3 ADD PUSH1 0x40 MSTORE DUP1 ISZERO PUSH2 0x7A8 JUMPI DUP2 PUSH1 0x20 ADD PUSH1 0x20 DUP3 MUL DUP1 CALLDATASIZE DUP4 CALLDATACOPY ADD SWAP1 POP JUMPDEST POP SWAP3 POP DUP5 JUMPDEST DUP2 DUP2 LT ISZERO PUSH2 0x822 JUMPI PUSH1 0x3 DUP2 DUP2 SLOAD DUP2 LT PUSH2 0x7C8 JUMPI PUSH2 0x7C8 PUSH2 0x1B40 JUMP JUMPDEST PUSH1 0x0 SWAP2 DUP3 MSTORE PUSH1 0x20 SWAP1 SWAP2 KECCAK256 ADD SLOAD PUSH1 0x1 PUSH1 0x1 PUSH1 0xA0 SHL SUB AND DUP5 PUSH2 0x7E8 DUP9 DUP5 PUSH2 0x1B2D JUMP JUMPDEST DUP2 MLOAD DUP2 LT PUSH2 0x7F8 JUMPI PUSH2 0x7F8 PUSH2 0x1B40 JUMP JUMPDEST PUSH1 0x1 PUSH1 0x1 PUSH1 0xA0 SHL SUB SWAP1 SWAP3 AND PUSH1 0x20 SWAP3 DUP4 MUL SWAP2 SWAP1 SWAP2 ADD SWAP1 SWAP2 ADD MSTORE DUP1 PUSH2 0x81A DUP2 PUSH2 0x1B56 JUMP JUMPDEST SWAP2 POP POP PUSH2 0x7AD JUMP JUMPDEST POP PUSH1 0x3 SLOAD SWAP3 SWAP6 SWAP3 GT SWAP4 POP SWAP1 SWAP2 POP POP JUMP JUMPDEST PUSH1 0x60 DUP1 PUSH1 0x0 DUP1 DUP1 DUP6 PUSH1 0x1 PUSH1 0x1 PUSH1 0xA0 SHL SUB DUP2 AND PUSH2 0x860 JUMPI PUSH1 0x40 MLOAD PUSH3 0x461BCD PUSH1 0xE5 SHL DUP2 MSTORE PUSH1 0x4 ADD PUSH2 0x2D8 SWAP1 PUSH2 0x17BB JUMP JUMPDEST PUSH1 0x1 PUSH1 0x1 PUSH1 0xA0 SHL SUB DUP8 AND PUSH1 0x0 SWAP1 DUP2 MSTORE PUSH1 0x4 PUSH1 0x20 MSTORE PUSH1 0x40 SWAP1 KECCAK256 SLOAD PUSH1 0xFF AND PUSH2 0x8D7 JUMPI PUSH1 0x40 MLOAD PUSH3 0x461BCD PUSH1 0xE5 SHL DUP2 MSTORE PUSH1 0x20 PUSH1 0x4 DUP3 ADD MSTORE PUSH1 0x26 PUSH1 0x24 DUP3 ADD MSTORE PUSH32 0x49737375657252656769737472793A2041646472657373206E6F742072656769 PUSH1 0x44 DUP3 ADD MSTORE PUSH6 0x1CDD195C9959 PUSH1 0xD2 SHL PUSH1 0x64 DUP3 ADD MSTORE PUSH1 0x84 ADD PUSH2 0x2D8 JUMP JUMPDEST PUSH1 0x1 PUSH1 0x1 PUSH1 0xA0 SHL SUB DUP8 AND PUSH1 0x0 SWAP1 DUP2 MSTORE PUSH1 0x2 PUSH1 0x20 MSTORE PUSH1 0x40 DUP1 DUP3 KECCAK256 DUP2 MLOAD PUSH1 0xA0 DUP2 ADD SWAP1 SWAP3 MSTORE DUP1 SLOAD DUP3 SWAP1 DUP3 SWAP1 PUSH2 0x908 SWAP1 PUSH2 0x1837 JUMP JUMPDEST DUP1 PUSH1 0x1F ADD PUSH1 0x20 DUP1 SWAP2 DIV MUL PUSH1 0x20 ADD PUSH1 0x40 MLOAD SWAP1 DUP2 ADD PUSH1 0x40 MSTORE DUP1 SWAP3 SWAP2 SWAP1 DUP2 DUP2 MSTORE PUSH1 0x20 ADD DUP3 DUP1 SLOAD PUSH2 0x934 SWAP1 PUSH2 0x1837 JUMP JUMPDEST DUP1 ISZERO PUSH2 0x981 JUMPI DUP1 PUSH1 0x1F LT PUSH2 0x956 JUMPI PUSH2 0x100 DUP1 DUP4 SLOAD DIV MUL DUP4 MSTORE SWAP2 PUSH1 0x20 ADD SWAP2 PUSH2 0x981 JUMP JUMPDEST DUP3 ADD SWAP2 SWAP1 PUSH1 0x0 MSTORE PUSH1 0x20 PUSH1 0x0 KECCAK256 SWAP1 JUMPDEST DUP2 SLOAD DUP2 MSTORE SWAP1 PUSH1 0x1 ADD SWAP1 PUSH1 0x20 ADD DUP1 DUP4 GT PUSH2 0x964 JUMPI DUP3 SWAP1 SUB PUSH1 0x1F AND DUP3 ADD SWAP2 JUMPDEST POP POP POP POP POP DUP2 MSTORE PUSH1 0x20 ADD PUSH1 0x1 DUP3 ADD DUP1 SLOAD PUSH2 0x99A SWAP1 PUSH2 0x1837 JUMP JUMPDEST DUP1 PUSH1 0x1F ADD PUSH1 0x20 DUP1 SWAP2 DIV MUL PUSH1 0x20 ADD PUSH1 0x40 MLOAD SWAP1 DUP2 ADD PUSH1 0x40 MSTORE DUP1 SWAP3 SWAP2 SWAP1 DUP2 DUP2 MSTORE PUSH1 0x20 ADD DUP3 DUP1 SLOAD PUSH2 0x9C6 SWAP1 PUSH2 0x1837 JUMP JUMPDEST DUP1 ISZERO PUSH2 0xA13 JUMPI DUP1 PUSH1 0x1F LT PUSH2 0x9E8 JUMPI PUSH2 0x100 DUP1 DUP4 SLOAD DIV MUL DUP4 MSTORE SWAP2 PUSH1 0x20 ADD SWAP2 PUSH2 0xA13 JUMP JUMPDEST DUP3 ADD SWAP2 SWAP1 PUSH1 0x0 MSTORE PUSH1 0x20 PUSH1 0x0 KECCAK256 SWAP1 JUMPDEST DUP2 SLOAD DUP2 MSTORE SWAP1 PUSH1 0x1 ADD SWAP1 PUSH1 0x20 ADD DUP1 DUP4 GT PUSH2 0x9F6 JUMPI DUP3 SWAP1 SUB PUSH1 0x1F AND DUP3 ADD SWAP2 JUMPDEST POP POP POP SWAP2 DUP4 MSTORE POP POP PUSH1 0x2 DUP3 ADD SLOAD PUSH1 0x20 DUP1 DUP4 ADD SWAP2 SWAP1 SWAP2 MSTORE PUSH1 0x3 DUP4 ADD SLOAD PUSH1 0xFF AND ISZERO ISZERO PUSH1 0x40 DUP1 DUP5 ADD SWAP2 SWAP1 SWAP2 MSTORE PUSH1 0x4 SWAP1 SWAP4 ADD SLOAD PUSH1 0x60 SWAP3 DUP4 ADD MSTORE DUP4 MLOAD SWAP1 DUP5 ADD MLOAD SWAP3 DUP5 ADD MLOAD SWAP2 DUP5 ADD MLOAD PUSH1 0x80 SWAP1 SWAP5 ADD MLOAD SWAP1 SWAP13 SWAP3 SWAP12 POP SWAP1 SWAP10 POP SWAP2 SWAP8 POP SWAP1 SWAP6 POP SWAP4 POP POP POP POP JUMP JUMPDEST PUSH2 0xA79 PUSH2 0x13C0 JUMP JUMPDEST DUP3 PUSH1 0x1 PUSH1 0x1 PUSH1 0xA0 SHL SUB DUP2 AND PUSH2 0xAA0 JUMPI PUSH1 0x40 MLOAD PUSH3 0x461BCD PUSH1 0xE5 SHL DUP2 MSTORE PUSH1 0x4 ADD PUSH2 0x2D8 SWAP1 PUSH2 0x17BB JUMP JUMPDEST DUP3 PUSH1 0x0 DUP2 MLOAD GT PUSH2 0xAC2 JUMPI PUSH1 0x40 MLOAD PUSH3 0x461BCD PUSH1 0xE5 SHL DUP2 MSTORE PUSH1 0x4 ADD PUSH2 0x2D8 SWAP1 PUSH2 0x18B1 JUMP JUMPDEST PUSH1 0xC8 DUP2 MLOAD GT ISZERO PUSH2 0xAE4 JUMPI PUSH1 0x40 MLOAD PUSH3 0x461BCD PUSH1 0xE5 SHL DUP2 MSTORE PUSH1 0x4 ADD PUSH2 0x2D8 SWAP1 PUSH2 0x18F7 JUMP JUMPDEST DUP3 PUSH1 0x0 DUP2 MLOAD GT PUSH2 0xB06 JUMPI PUSH1 0x40 MLOAD PUSH3 0x461BCD PUSH1 0xE5 SHL DUP2 MSTORE PUSH1 0x4 ADD PUSH2 0x2D8 SWAP1 PUSH2 0x18B1 JUMP JUMPDEST PUSH1 0xC8 DUP2 MLOAD GT ISZERO PUSH2 0xB28 JUMPI PUSH1 0x40 MLOAD PUSH3 0x461BCD PUSH1 0xE5 SHL DUP2 MSTORE PUSH1 0x4 ADD PUSH2 0x2D8 SWAP1 PUSH2 0x18F7 JUMP JUMPDEST PUSH2 0xB30 PUSH2 0x141A JUMP JUMPDEST PUSH1 0x1 PUSH1 0x1 PUSH1 0xA0 SHL SUB DUP7 AND PUSH1 0x0 SWAP1 DUP2 MSTORE PUSH1 0x4 PUSH1 0x20 MSTORE PUSH1 0x40 SWAP1 KECCAK256 SLOAD PUSH1 0xFF AND ISZERO PUSH2 0xBAC JUMPI PUSH1 0x40 MLOAD PUSH3 0x461BCD PUSH1 0xE5 SHL DUP2 MSTORE PUSH1 0x20 PUSH1 0x4 DUP3 ADD MSTORE PUSH1 0x2A PUSH1 0x24 DUP3 ADD MSTORE PUSH32 0x49737375657252656769737472793A2049737375657220616C72656164792072 PUSH1 0x44 DUP3 ADD MSTORE PUSH10 0x32B3B4B9BA32B932B217 PUSH1 0xB1 SHL PUSH1 0x64 DUP3 ADD MSTORE PUSH1 0x84 ADD PUSH2 0x2D8 JUMP JUMPDEST PUSH1 0x40 DUP1 MLOAD PUSH1 0xA0 DUP2 ADD DUP3 MSTORE DUP7 DUP2 MSTORE PUSH1 0x20 DUP1 DUP3 ADD DUP8 SWAP1 MSTORE TIMESTAMP DUP3 DUP5 ADD MSTORE PUSH1 0x1 PUSH1 0x60 DUP4 ADD MSTORE PUSH1 0x0 PUSH1 0x80 DUP4 ADD DUP2 SWAP1 MSTORE PUSH1 0x1 PUSH1 0x1 PUSH1 0xA0 SHL SUB DUP11 AND DUP2 MSTORE PUSH1 0x2 SWAP1 SWAP2 MSTORE SWAP2 SWAP1 SWAP2 KECCAK256 DUP2 MLOAD DUP2 SWAP1 PUSH2 0xBF9 SWAP1 DUP3 PUSH2 0x1979 JUMP JUMPDEST POP PUSH1 0x20 DUP3 ADD MLOAD PUSH1 0x1 DUP3 ADD SWAP1 PUSH2 0xC0E SWAP1 DUP3 PUSH2 0x1979 JUMP JUMPDEST POP PUSH1 0x40 DUP3 DUP2 ADD MLOAD PUSH1 0x2 DUP4 ADD SSTORE PUSH1 0x60 DUP4 ADD MLOAD PUSH1 0x3 DUP1 DUP5 ADD DUP1 SLOAD SWAP3 ISZERO ISZERO PUSH1 0xFF NOT SWAP4 DUP5 AND OR SWAP1 SSTORE PUSH1 0x80 SWAP1 SWAP5 ADD MLOAD PUSH1 0x4 SWAP4 DUP5 ADD SSTORE PUSH1 0x1 PUSH1 0x1 PUSH1 0xA0 SHL SUB DUP11 AND PUSH1 0x0 DUP2 DUP2 MSTORE PUSH1 0x20 SWAP5 SWAP1 SWAP5 MSTORE SWAP2 DUP4 KECCAK256 DUP1 SLOAD SWAP1 SWAP2 AND PUSH1 0x1 SWAP1 DUP2 OR SWAP1 SWAP2 SSTORE DUP4 SLOAD SWAP1 DUP2 ADD DUP5 SSTORE SWAP3 DUP3 MSTORE PUSH32 0xC2575A0E9E593C00F959F8C92F12DB2869C3395A3B0502D05E2516446F71F85B SWAP1 SWAP3 ADD DUP1 SLOAD PUSH1 0x1 PUSH1 0x1 PUSH1 0xA0 SHL SUB NOT AND SWAP1 SWAP3 OR SWAP1 SWAP2 SSTORE PUSH1 0x5 DUP1 SLOAD SWAP2 PUSH2 0xCB1 DUP4 PUSH2 0x1B56 JUMP JUMPDEST SWAP2 SWAP1 POP SSTORE POP DUP6 PUSH1 0x1 PUSH1 0x1 PUSH1 0xA0 SHL SUB AND PUSH32 0xB90FAB3F509B58E3F490DAE1E5C582E8FDE219064C5B98889D1A22F99FD38E84 DUP7 DUP7 TIMESTAMP PUSH1 0x40 MLOAD PUSH2 0x6E2 SWAP4 SWAP3 SWAP2 SWAP1 PUSH2 0x1A39 JUMP JUMPDEST PUSH2 0xCFB PUSH2 0x13C0 JUMP JUMPDEST PUSH2 0xD05 PUSH1 0x0 PUSH2 0x1473 JUMP JUMPDEST JUMP JUMPDEST PUSH2 0xD0F PUSH2 0x13C0 JUMP JUMPDEST DUP1 PUSH1 0x1 PUSH1 0x1 PUSH1 0xA0 SHL SUB DUP2 AND PUSH2 0xD36 JUMPI PUSH1 0x40 MLOAD PUSH3 0x461BCD PUSH1 0xE5 SHL DUP2 MSTORE PUSH1 0x4 ADD PUSH2 0x2D8 SWAP1 PUSH2 0x17BB JUMP JUMPDEST PUSH2 0xD3E PUSH2 0x141A JUMP JUMPDEST PUSH1 0x1 PUSH1 0x1 PUSH1 0xA0 SHL SUB DUP3 AND PUSH1 0x0 SWAP1 DUP2 MSTORE PUSH1 0x4 PUSH1 0x20 MSTORE PUSH1 0x40 SWAP1 KECCAK256 SLOAD PUSH1 0xFF AND PUSH2 0xD76 JUMPI PUSH1 0x40 MLOAD PUSH3 0x461BCD PUSH1 0xE5 SHL DUP2 MSTORE PUSH1 0x4 ADD PUSH2 0x2D8 SWAP1 PUSH2 0x186B JUMP JUMPDEST PUSH1 0x1 PUSH1 0x1 PUSH1 0xA0 SHL SUB DUP3 AND PUSH1 0x0 SWAP1 DUP2 MSTORE PUSH1 0x2 PUSH1 0x20 MSTORE PUSH1 0x40 SWAP1 KECCAK256 PUSH1 0x3 ADD SLOAD PUSH1 0xFF AND PUSH2 0xDF5 JUMPI PUSH1 0x40 MLOAD PUSH3 0x461BCD PUSH1 0xE5 SHL DUP2 MSTORE PUSH1 0x20 PUSH1 0x4 DUP3 ADD MSTORE PUSH1 0x2B PUSH1 0x24 DUP3 ADD MSTORE PUSH32 0x49737375657252656769737472793A2049737375657220697320616C72656164 PUSH1 0x44 DUP3 ADD MSTORE PUSH11 0x3C9034B730B1BA34BB3297 PUSH1 0xA9 SHL PUSH1 0x64 DUP3 ADD MSTORE PUSH1 0x84 ADD PUSH2 0x2D8 JUMP JUMPDEST PUSH1 0x1 PUSH1 0x1 PUSH1 0xA0 SHL SUB DUP3 AND PUSH1 0x0 DUP2 DUP2 MSTORE PUSH1 0x2 PUSH1 0x20 MSTORE PUSH1 0x40 SWAP1 DUP2 SWAP1 KECCAK256 PUSH1 0x3 ADD DUP1 SLOAD PUSH1 0xFF NOT AND SWAP1 SSTORE MLOAD PUSH32 0x586AA13012DA4D969863A6FACF031A08A22F65DBAE68786E4DE5261D411A60D8 SWAP1 PUSH2 0x507 SWAP1 TIMESTAMP DUP2 MSTORE PUSH1 0x20 ADD SWAP1 JUMP JUMPDEST PUSH1 0x60 DUP1 PUSH1 0x0 DUP1 DUP5 GT PUSH2 0xE6E JUMPI PUSH1 0x40 MLOAD PUSH3 0x461BCD PUSH1 0xE5 SHL DUP2 MSTORE PUSH1 0x4 ADD PUSH2 0x2D8 SWAP1 PUSH2 0x1A6F JUMP JUMPDEST PUSH1 0x0 DUP1 JUMPDEST PUSH1 0x3 SLOAD DUP2 LT ISZERO PUSH2 0xEE3 JUMPI PUSH1 0x2 PUSH1 0x0 PUSH1 0x3 DUP4 DUP2 SLOAD DUP2 LT PUSH2 0xE93 JUMPI PUSH2 0xE93 PUSH2 0x1B40 JUMP JUMPDEST PUSH1 0x0 SWAP2 DUP3 MSTORE PUSH1 0x20 DUP1 DUP4 KECCAK256 SWAP1 SWAP2 ADD SLOAD PUSH1 0x1 PUSH1 0x1 PUSH1 0xA0 SHL SUB AND DUP4 MSTORE DUP3 ADD SWAP3 SWAP1 SWAP3 MSTORE PUSH1 0x40 ADD SWAP1 KECCAK256 PUSH1 0x3 ADD SLOAD PUSH1 0xFF AND ISZERO PUSH2 0xED1 JUMPI DUP2 PUSH2 0xECD DUP2 PUSH2 0x1B56 JUMP JUMPDEST SWAP3 POP POP JUMPDEST DUP1 PUSH2 0xEDB DUP2 PUSH2 0x1B56 JUMP JUMPDEST SWAP2 POP POP PUSH2 0xE72 JUMP JUMPDEST POP DUP1 DUP7 LT PUSH2 0xF03 JUMPI PUSH1 0x40 MLOAD PUSH3 0x461BCD PUSH1 0xE5 SHL DUP2 MSTORE PUSH1 0x4 ADD PUSH2 0x2D8 SWAP1 PUSH2 0x1ABB JUMP JUMPDEST PUSH1 0x0 PUSH2 0xF0F DUP7 DUP9 PUSH2 0x1B1A JUMP JUMPDEST SWAP1 POP DUP2 DUP2 GT ISZERO PUSH2 0xF1C JUMPI POP DUP1 JUMPDEST PUSH2 0xF26 DUP8 DUP3 PUSH2 0x1B2D JUMP JUMPDEST PUSH8 0xFFFFFFFFFFFFFFFF DUP2 GT ISZERO PUSH2 0xF3E JUMPI PUSH2 0xF3E PUSH2 0x155A JUMP JUMPDEST PUSH1 0x40 MLOAD SWAP1 DUP1 DUP3 MSTORE DUP1 PUSH1 0x20 MUL PUSH1 0x20 ADD DUP3 ADD PUSH1 0x40 MSTORE DUP1 ISZERO PUSH2 0xF67 JUMPI DUP2 PUSH1 0x20 ADD PUSH1 0x20 DUP3 MUL DUP1 CALLDATASIZE DUP4 CALLDATACOPY ADD SWAP1 POP JUMPDEST POP SWAP5 POP PUSH2 0xF74 DUP8 DUP3 PUSH2 0x1B2D JUMP JUMPDEST PUSH8 0xFFFFFFFFFFFFFFFF DUP2 GT ISZERO PUSH2 0xF8C JUMPI PUSH2 0xF8C PUSH2 0x155A JUMP JUMPDEST PUSH1 0x40 MLOAD SWAP1 DUP1 DUP3 MSTORE DUP1 PUSH1 0x20 MUL PUSH1 0x20 ADD DUP3 ADD PUSH1 0x40 MSTORE DUP1 ISZERO PUSH2 0xFBF JUMPI DUP2 PUSH1 0x20 ADD JUMPDEST PUSH1 0x60 DUP2 MSTORE PUSH1 0x20 ADD SWAP1 PUSH1 0x1 SWAP1 SUB SWAP1 DUP2 PUSH2 0xFAA JUMPI SWAP1 POP JUMPDEST POP SWAP4 POP PUSH1 0x0 DUP1 PUSH1 0x0 JUMPDEST PUSH1 0x3 SLOAD DUP2 LT DUP1 ISZERO PUSH2 0xFE1 JUMPI POP PUSH2 0xFDE DUP11 DUP6 PUSH2 0x1B2D JUMP JUMPDEST DUP3 LT JUMPDEST ISZERO PUSH2 0x11A7 JUMPI PUSH1 0x2 PUSH1 0x0 PUSH1 0x3 DUP4 DUP2 SLOAD DUP2 LT PUSH2 0xFFD JUMPI PUSH2 0xFFD PUSH2 0x1B40 JUMP JUMPDEST PUSH1 0x0 SWAP2 DUP3 MSTORE PUSH1 0x20 DUP1 DUP4 KECCAK256 SWAP1 SWAP2 ADD SLOAD PUSH1 0x1 PUSH1 0x1 PUSH1 0xA0 SHL SUB AND DUP4 MSTORE DUP3 ADD SWAP3 SWAP1 SWAP3 MSTORE PUSH1 0x40 ADD SWAP1 KECCAK256 PUSH1 0x3 ADD SLOAD PUSH1 0xFF AND ISZERO PUSH2 0x1195 JUMPI DUP10 DUP4 LT PUSH2 0x1187 JUMPI PUSH1 0x3 DUP2 DUP2 SLOAD DUP2 LT PUSH2 0x1047 JUMPI PUSH2 0x1047 PUSH2 0x1B40 JUMP JUMPDEST SWAP1 PUSH1 0x0 MSTORE PUSH1 0x20 PUSH1 0x0 KECCAK256 ADD PUSH1 0x0 SWAP1 SLOAD SWAP1 PUSH2 0x100 EXP SWAP1 DIV PUSH1 0x1 PUSH1 0x1 PUSH1 0xA0 SHL SUB AND DUP9 DUP4 DUP2 MLOAD DUP2 LT PUSH2 0x1077 JUMPI PUSH2 0x1077 PUSH2 0x1B40 JUMP JUMPDEST PUSH1 0x20 MUL PUSH1 0x20 ADD ADD SWAP1 PUSH1 0x1 PUSH1 0x1 PUSH1 0xA0 SHL SUB AND SWAP1 DUP2 PUSH1 0x1 PUSH1 0x1 PUSH1 0xA0 SHL SUB AND DUP2 MSTORE POP POP PUSH1 0x2 PUSH1 0x0 PUSH1 0x3 DUP4 DUP2 SLOAD DUP2 LT PUSH2 0x10AE JUMPI PUSH2 0x10AE PUSH2 0x1B40 JUMP JUMPDEST PUSH1 0x0 SWAP2 DUP3 MSTORE PUSH1 0x20 DUP1 DUP4 KECCAK256 SWAP1 SWAP2 ADD SLOAD PUSH1 0x1 PUSH1 0x1 PUSH1 0xA0 SHL SUB AND DUP4 MSTORE DUP3 ADD SWAP3 SWAP1 SWAP3 MSTORE PUSH1 0x40 ADD SWAP1 KECCAK256 DUP1 SLOAD PUSH2 0x10DD SWAP1 PUSH2 0x1837 JUMP JUMPDEST DUP1 PUSH1 0x1F ADD PUSH1 0x20 DUP1 SWAP2 DIV MUL PUSH1 0x20 ADD PUSH1 0x40 MLOAD SWAP1 DUP2 ADD PUSH1 0x40 MSTORE DUP1 SWAP3 SWAP2 SWAP1 DUP2 DUP2 MSTORE PUSH1 0x20 ADD DUP3 DUP1 SLOAD PUSH2 0x1109 SWAP1 PUSH2 0x1837 JUMP JUMPDEST DUP1 ISZERO PUSH2 0x1156 JUMPI DUP1 PUSH1 0x1F LT PUSH2 0x112B JUMPI PUSH2 0x100 DUP1 DUP4 SLOAD DIV MUL DUP4 MSTORE SWAP2 PUSH1 0x20 ADD SWAP2 PUSH2 0x1156 JUMP JUMPDEST DUP3 ADD SWAP2 SWAP1 PUSH1 0x0 MSTORE PUSH1 0x20 PUSH1 0x0 KECCAK256 SWAP1 JUMPDEST DUP2 SLOAD DUP2 MSTORE SWAP1 PUSH1 0x1 ADD SWAP1 PUSH1 0x20 ADD DUP1 DUP4 GT PUSH2 0x1139 JUMPI DUP3 SWAP1 SUB PUSH1 0x1F AND DUP3 ADD SWAP2 JUMPDEST POP POP POP POP POP DUP8 DUP4 DUP2 MLOAD DUP2 LT PUSH2 0x116D JUMPI PUSH2 0x116D PUSH2 0x1B40 JUMP JUMPDEST PUSH1 0x20 MUL PUSH1 0x20 ADD ADD DUP2 SWAP1 MSTORE POP DUP2 DUP1 PUSH2 0x1183 SWAP1 PUSH2 0x1B56 JUMP JUMPDEST SWAP3 POP POP JUMPDEST DUP3 PUSH2 0x1191 DUP2 PUSH2 0x1B56 JUMP JUMPDEST SWAP4 POP POP JUMPDEST DUP1 PUSH2 0x119F DUP2 PUSH2 0x1B56 JUMP JUMPDEST SWAP2 POP POP PUSH2 0xFC8 JUMP JUMPDEST POP SWAP6 SWAP9 SWAP5 SWAP8 POP POP LT SWAP4 POP SWAP1 SWAP2 POP POP JUMP JUMPDEST PUSH1 0x5 SLOAD PUSH1 0x0 DUP1 DUP1 DUP1 DUP1 JUMPDEST PUSH1 0x3 SLOAD DUP2 LT ISZERO PUSH2 0x125D JUMPI PUSH1 0x0 PUSH1 0x3 DUP3 DUP2 SLOAD DUP2 LT PUSH2 0x11E0 JUMPI PUSH2 0x11E0 PUSH2 0x1B40 JUMP JUMPDEST PUSH1 0x0 SWAP2 DUP3 MSTORE PUSH1 0x20 DUP1 DUP4 KECCAK256 SWAP1 SWAP2 ADD SLOAD PUSH1 0x1 PUSH1 0x1 PUSH1 0xA0 SHL SUB AND DUP1 DUP4 MSTORE PUSH1 0x2 SWAP1 SWAP2 MSTORE PUSH1 0x40 SWAP1 SWAP2 KECCAK256 PUSH1 0x3 ADD SLOAD SWAP1 SWAP2 POP PUSH1 0xFF AND ISZERO PUSH2 0x1221 JUMPI DUP4 PUSH2 0x121D DUP2 PUSH2 0x1B56 JUMP JUMPDEST SWAP5 POP POP JUMPDEST PUSH1 0x1 PUSH1 0x1 PUSH1 0xA0 SHL SUB DUP2 AND PUSH1 0x0 SWAP1 DUP2 MSTORE PUSH1 0x2 PUSH1 0x20 MSTORE PUSH1 0x40 SWAP1 KECCAK256 PUSH1 0x4 ADD SLOAD PUSH2 0x1247 SWAP1 DUP5 PUSH2 0x1B1A JUMP JUMPDEST SWAP3 POP POP DUP1 DUP1 PUSH2 0x1255 SWAP1 PUSH2 0x1B56 JUMP JUMPDEST SWAP2 POP POP PUSH2 0x11C1 JUMP JUMPDEST POP SWAP4 SWAP5 SWAP1 SWAP4 SWAP3 POP SWAP1 POP JUMP JUMPDEST PUSH2 0x1270 PUSH2 0x13C0 JUMP JUMPDEST PUSH1 0x1 PUSH1 0x1 PUSH1 0xA0 SHL SUB DUP2 AND PUSH2 0x12D5 JUMPI PUSH1 0x40 MLOAD PUSH3 0x461BCD PUSH1 0xE5 SHL DUP2 MSTORE PUSH1 0x20 PUSH1 0x4 DUP3 ADD MSTORE PUSH1 0x26 PUSH1 0x24 DUP3 ADD MSTORE PUSH32 0x4F776E61626C653A206E6577206F776E657220697320746865207A65726F2061 PUSH1 0x44 DUP3 ADD MSTORE PUSH6 0x646472657373 PUSH1 0xD0 SHL PUSH1 0x64 DUP3 ADD MSTORE PUSH1 0x84 ADD PUSH2 0x2D8 JUMP JUMPDEST PUSH2 0x12DE DUP2 PUSH2 0x1473 JUMP JUMPDEST POP JUMP JUMPDEST DUP1 PUSH1 0x1 PUSH1 0x1 PUSH1 0xA0 SHL SUB DUP2 AND PUSH2 0x1308 JUMPI PUSH1 0x40 MLOAD PUSH3 0x461BCD PUSH1 0xE5 SHL DUP2 MSTORE PUSH1 0x4 ADD PUSH2 0x2D8 SWAP1 PUSH2 0x17BB JUMP JUMPDEST PUSH1 0x1 PUSH1 0x1 PUSH1 0xA0 SHL SUB DUP3 AND PUSH1 0x0 SWAP1 DUP2 MSTORE PUSH1 0x4 PUSH1 0x20 MSTORE PUSH1 0x40 SWAP1 KECCAK256 SLOAD PUSH1 0xFF AND PUSH2 0x1340 JUMPI PUSH1 0x40 MLOAD PUSH3 0x461BCD PUSH1 0xE5 SHL DUP2 MSTORE PUSH1 0x4 ADD PUSH2 0x2D8 SWAP1 PUSH2 0x17F2 JUMP JUMPDEST PUSH1 0x1 PUSH1 0x1 PUSH1 0xA0 SHL SUB DUP3 AND PUSH1 0x0 SWAP1 DUP2 MSTORE PUSH1 0x2 PUSH1 0x20 MSTORE PUSH1 0x40 DUP2 KECCAK256 PUSH1 0x4 ADD DUP1 SLOAD SWAP2 PUSH2 0x1367 DUP4 PUSH2 0x1B56 JUMP JUMPDEST SWAP1 SWAP2 SSTORE POP POP PUSH1 0x1 PUSH1 0x1 PUSH1 0xA0 SHL SUB DUP3 AND PUSH1 0x0 DUP2 DUP2 MSTORE PUSH1 0x2 PUSH1 0x20 SWAP1 DUP2 MSTORE PUSH1 0x40 SWAP2 DUP3 SWAP1 KECCAK256 PUSH1 0x4 ADD SLOAD SWAP2 MLOAD SWAP2 DUP3 MSTORE PUSH32 0x33C8DA3AECAE4A969F49A362298D863E97EE28A279A91F33828222FEEC7C3BD7 SWAP2 ADD PUSH1 0x40 MLOAD DUP1 SWAP2 SUB SWAP1 LOG2 POP POP JUMP JUMPDEST PUSH1 0x0 SLOAD PUSH1 0x1 PUSH1 0x1 PUSH1 0xA0 SHL SUB AND CALLER EQ PUSH2 0xD05 JUMPI PUSH1 0x40 MLOAD PUSH3 0x461BCD PUSH1 0xE5 SHL DUP2 MSTORE PUSH1 0x20 PUSH1 0x4 DUP3 ADD DUP2 SWAP1 MSTORE PUSH1 0x24 DUP3 ADD MSTORE PUSH32 0x4F776E61626C653A2063616C6C6572206973206E6F7420746865206F776E6572 PUSH1 0x44 DUP3 ADD MSTORE PUSH1 0x64 ADD PUSH2 0x2D8 JUMP JUMPDEST PUSH1 0x2 PUSH1 0x1 SLOAD SUB PUSH2 0x146C JUMPI PUSH1 0x40 MLOAD PUSH3 0x461BCD PUSH1 0xE5 SHL DUP2 MSTORE PUSH1 0x20 PUSH1 0x4 DUP3 ADD MSTORE PUSH1 0x1F PUSH1 0x24 DUP3 ADD MSTORE PUSH32 0x5265656E7472616E637947756172643A207265656E7472616E742063616C6C00 PUSH1 0x44 DUP3 ADD MSTORE PUSH1 0x64 ADD PUSH2 0x2D8 JUMP JUMPDEST PUSH1 0x2 PUSH1 0x1 SSTORE JUMP JUMPDEST PUSH1 0x0 DUP1 SLOAD PUSH1 0x1 PUSH1 0x1 PUSH1 0xA0 SHL SUB DUP4 DUP2 AND PUSH1 0x1 PUSH1 0x1 PUSH1 0xA0 SHL SUB NOT DUP4 AND DUP2 OR DUP5 SSTORE PUSH1 0x40 MLOAD SWAP2 SWAP1 SWAP3 AND SWAP3 DUP4 SWAP2 PUSH32 0x8BE0079C531659141344CD1FD0A4F28419497F9722A3DAAFE3B4186F6B6457E0 SWAP2 SWAP1 LOG3 POP POP JUMP JUMPDEST DUP1 CALLDATALOAD PUSH1 0x1 PUSH1 0x1 PUSH1 0xA0 SHL SUB DUP2 AND DUP2 EQ PUSH2 0x14DA JUMPI PUSH1 0x0 DUP1 REVERT JUMPDEST SWAP2 SWAP1 POP JUMP JUMPDEST PUSH1 0x0 PUSH1 0x20 DUP3 DUP5 SUB SLT ISZERO PUSH2 0x14F1 JUMPI PUSH1 0x0 DUP1 REVERT JUMPDEST PUSH2 0x14FA DUP3 PUSH2 0x14C3 JUMP JUMPDEST SWAP4 SWAP3 POP POP POP JUMP JUMPDEST PUSH1 0x0 DUP2 MLOAD DUP1 DUP5 MSTORE PUSH1 0x0 JUMPDEST DUP2 DUP2 LT ISZERO PUSH2 0x1527 JUMPI PUSH1 0x20 DUP2 DUP6 ADD DUP2 ADD MLOAD DUP7 DUP4 ADD DUP3 ADD MSTORE ADD PUSH2 0x150B JUMP JUMPDEST POP PUSH1 0x0 PUSH1 0x20 DUP3 DUP7 ADD ADD MSTORE PUSH1 0x20 PUSH1 0x1F NOT PUSH1 0x1F DUP4 ADD AND DUP6 ADD ADD SWAP2 POP POP SWAP3 SWAP2 POP POP JUMP JUMPDEST PUSH1 0x20 DUP2 MSTORE PUSH1 0x0 PUSH2 0x14FA PUSH1 0x20 DUP4 ADD DUP5 PUSH2 0x1501 JUMP JUMPDEST PUSH4 0x4E487B71 PUSH1 0xE0 SHL PUSH1 0x0 MSTORE PUSH1 0x41 PUSH1 0x4 MSTORE PUSH1 0x24 PUSH1 0x0 REVERT JUMPDEST PUSH1 0x0 DUP3 PUSH1 0x1F DUP4 ADD SLT PUSH2 0x1581 JUMPI PUSH1 0x0 DUP1 REVERT JUMPDEST DUP2 CALLDATALOAD PUSH8 0xFFFFFFFFFFFFFFFF DUP1 DUP3 GT ISZERO PUSH2 0x159C JUMPI PUSH2 0x159C PUSH2 0x155A JUMP JUMPDEST PUSH1 0x40 MLOAD PUSH1 0x1F DUP4 ADD PUSH1 0x1F NOT SWAP1 DUP2 AND PUSH1 0x3F ADD AND DUP2 ADD SWAP1 DUP3 DUP3 GT DUP2 DUP4 LT OR ISZERO PUSH2 0x15C4 JUMPI PUSH2 0x15C4 PUSH2 0x155A JUMP JUMPDEST DUP2 PUSH1 0x40 MSTORE DUP4 DUP2 MSTORE DUP7 PUSH1 0x20 DUP6 DUP9 ADD ADD GT ISZERO PUSH2 0x15DD JUMPI PUSH1 0x0 DUP1 REVERT JUMPDEST DUP4 PUSH1 0x20 DUP8 ADD PUSH1 0x20 DUP4 ADD CALLDATACOPY PUSH1 0x0 PUSH1 0x20 DUP6 DUP4 ADD ADD MSTORE DUP1 SWAP5 POP POP POP POP POP SWAP3 SWAP2 POP POP JUMP JUMPDEST PUSH1 0x0 DUP1 PUSH1 0x0 PUSH1 0x60 DUP5 DUP7 SUB SLT ISZERO PUSH2 0x1612 JUMPI PUSH1 0x0 DUP1 REVERT JUMPDEST PUSH2 0x161B DUP5 PUSH2 0x14C3 JUMP JUMPDEST SWAP3 POP PUSH1 0x20 DUP5 ADD CALLDATALOAD PUSH8 0xFFFFFFFFFFFFFFFF DUP1 DUP3 GT ISZERO PUSH2 0x1638 JUMPI PUSH1 0x0 DUP1 REVERT JUMPDEST PUSH2 0x1644 DUP8 DUP4 DUP9 ADD PUSH2 0x1570 JUMP JUMPDEST SWAP4 POP PUSH1 0x40 DUP7 ADD CALLDATALOAD SWAP2 POP DUP1 DUP3 GT ISZERO PUSH2 0x165A JUMPI PUSH1 0x0 DUP1 REVERT JUMPDEST POP PUSH2 0x1667 DUP7 DUP3 DUP8 ADD PUSH2 0x1570 JUMP JUMPDEST SWAP2 POP POP SWAP3 POP SWAP3 POP SWAP3 JUMP JUMPDEST PUSH1 0x0 DUP1 PUSH1 0x40 DUP4 DUP6 SUB SLT ISZERO PUSH2 0x1684 JUMPI PUSH1 0x0 DUP1 REVERT JUMPDEST POP POP DUP1 CALLDATALOAD SWAP3 PUSH1 0x20 SWAP1 SWAP2 ADD CALLDATALOAD SWAP2 POP JUMP JUMPDEST PUSH1 0x0 DUP2 MLOAD DUP1 DUP5 MSTORE PUSH1 0x20 DUP1 DUP6 ADD SWAP5 POP DUP1 DUP5 ADD PUSH1 0x0 JUMPDEST DUP4 DUP2 LT ISZERO PUSH2 0x16CC JUMPI DUP2 MLOAD PUSH1 0x1 PUSH1 0x1 PUSH1 0xA0 SHL SUB AND DUP8 MSTORE SWAP6 DUP3 ADD SWAP6 SWAP1 DUP3 ADD SWAP1 PUSH1 0x1 ADD PUSH2 0x16A7 JUMP JUMPDEST POP SWAP5 SWAP6 SWAP5 POP POP POP POP POP JUMP JUMPDEST PUSH1 0x40 DUP2 MSTORE PUSH1 0x0 PUSH2 0x16EA PUSH1 0x40 DUP4 ADD DUP6 PUSH2 0x1693 JUMP JUMPDEST SWAP1 POP DUP3 ISZERO ISZERO PUSH1 0x20 DUP4 ADD MSTORE SWAP4 SWAP3 POP POP POP JUMP JUMPDEST PUSH1 0xA0 DUP2 MSTORE PUSH1 0x0 PUSH2 0x170E PUSH1 0xA0 DUP4 ADD DUP9 PUSH2 0x1501 JUMP JUMPDEST DUP3 DUP2 SUB PUSH1 0x20 DUP5 ADD MSTORE PUSH2 0x1720 DUP2 DUP9 PUSH2 0x1501 JUMP JUMPDEST PUSH1 0x40 DUP5 ADD SWAP7 SWAP1 SWAP7 MSTORE POP POP SWAP2 ISZERO ISZERO PUSH1 0x60 DUP4 ADD MSTORE PUSH1 0x80 SWAP1 SWAP2 ADD MSTORE SWAP3 SWAP2 POP POP JUMP JUMPDEST PUSH1 0x60 DUP2 MSTORE PUSH1 0x0 PUSH2 0x1751 PUSH1 0x60 DUP4 ADD DUP7 PUSH2 0x1693 JUMP JUMPDEST PUSH1 0x20 DUP4 DUP3 SUB DUP2 DUP6 ADD MSTORE DUP2 DUP7 MLOAD DUP1 DUP5 MSTORE DUP3 DUP5 ADD SWAP2 POP DUP3 DUP2 PUSH1 0x5 SHL DUP6 ADD ADD DUP4 DUP10 ADD PUSH1 0x0 JUMPDEST DUP4 DUP2 LT ISZERO PUSH2 0x17A1 JUMPI PUSH1 0x1F NOT DUP8 DUP5 SUB ADD DUP6 MSTORE PUSH2 0x178F DUP4 DUP4 MLOAD PUSH2 0x1501 JUMP JUMPDEST SWAP5 DUP7 ADD SWAP5 SWAP3 POP SWAP1 DUP6 ADD SWAP1 PUSH1 0x1 ADD PUSH2 0x1773 JUMP JUMPDEST POP POP DUP1 SWAP6 POP POP POP POP POP POP DUP3 ISZERO ISZERO PUSH1 0x40 DUP4 ADD MSTORE SWAP5 SWAP4 POP POP POP POP JUMP JUMPDEST PUSH1 0x20 DUP1 DUP3 MSTORE PUSH1 0x1F SWAP1 DUP3 ADD MSTORE PUSH32 0x49737375657252656769737472793A20496E76616C6964206164647265737300 PUSH1 0x40 DUP3 ADD MSTORE PUSH1 0x60 ADD SWAP1 JUMP JUMPDEST PUSH1 0x20 DUP1 DUP3 MSTORE PUSH1 0x25 SWAP1 DUP3 ADD MSTORE PUSH32 0x49737375657252656769737472793A20497373756572206E6F74207265676973 PUSH1 0x40 DUP3 ADD MSTORE PUSH5 0x1D195C9959 PUSH1 0xDA SHL PUSH1 0x60 DUP3 ADD MSTORE PUSH1 0x80 ADD SWAP1 JUMP JUMPDEST PUSH1 0x1 DUP2 DUP2 SHR SWAP1 DUP3 AND DUP1 PUSH2 0x184B JUMPI PUSH1 0x7F DUP3 AND SWAP2 POP JUMPDEST PUSH1 0x20 DUP3 LT DUP2 SUB PUSH2 0x3BD JUMPI PUSH4 0x4E487B71 PUSH1 0xE0 SHL PUSH1 0x0 MSTORE PUSH1 0x22 PUSH1 0x4 MSTORE PUSH1 0x24 PUSH1 0x0 REVERT JUMPDEST PUSH1 0x20 DUP1 DUP3 MSTORE PUSH1 0x26 SWAP1 DUP3 ADD MSTORE PUSH32 0x49737375657252656769737472793A20497373756572206E6F74207265676973 PUSH1 0x40 DUP3 ADD MSTORE PUSH6 0x3A32B932B217 PUSH1 0xD1 SHL PUSH1 0x60 DUP3 ADD MSTORE PUSH1 0x80 ADD SWAP1 JUMP JUMPDEST PUSH1 0x20 DUP1 DUP3 MSTORE PUSH1 0x26 SWAP1 DUP3 ADD MSTORE PUSH32 0x49737375657252656769737472793A20537472696E672063616E6E6F74206265 PUSH1 0x40 DUP3 ADD MSTORE PUSH6 0x20656D707479 PUSH1 0xD0 SHL PUSH1 0x60 DUP3 ADD MSTORE PUSH1 0x80 ADD SWAP1 JUMP JUMPDEST PUSH1 0x20 DUP1 DUP3 MSTORE PUSH1 0x1F SWAP1 DUP3 ADD MSTORE PUSH32 0x49737375657252656769737472793A20537472696E6720746F6F206C6F6E6700 PUSH1 0x40 DUP3 ADD MSTORE PUSH1 0x60 ADD SWAP1 JUMP JUMPDEST PUSH1 0x1F DUP3 GT ISZERO PUSH2 0x1974 JUMPI PUSH1 0x0 DUP2 DUP2 MSTORE PUSH1 0x20 DUP2 KECCAK256 PUSH1 0x1F DUP6 ADD PUSH1 0x5 SHR DUP2 ADD PUSH1 0x20 DUP7 LT ISZERO PUSH2 0x1955 JUMPI POP DUP1 JUMPDEST PUSH1 0x1F DUP6 ADD PUSH1 0x5 SHR DUP3 ADD SWAP2 POP JUMPDEST DUP2 DUP2 LT ISZERO PUSH2 0x6F3 JUMPI DUP3 DUP2 SSTORE PUSH1 0x1 ADD PUSH2 0x1961 JUMP JUMPDEST POP POP POP JUMP JUMPDEST DUP2 MLOAD PUSH8 0xFFFFFFFFFFFFFFFF DUP2 GT ISZERO PUSH2 0x1993 JUMPI PUSH2 0x1993 PUSH2 0x155A JUMP JUMPDEST PUSH2 0x19A7 DUP2 PUSH2 0x19A1 DUP5 SLOAD PUSH2 0x1837 JUMP JUMPDEST DUP5 PUSH2 0x192E JUMP JUMPDEST PUSH1 0x20 DUP1 PUSH1 0x1F DUP4 GT PUSH1 0x1 DUP2 EQ PUSH2 0x19DC JUMPI PUSH1 0x0 DUP5 ISZERO PUSH2 0x19C4 JUMPI POP DUP6 DUP4 ADD MLOAD JUMPDEST PUSH1 0x0 NOT PUSH1 0x3 DUP7 SWAP1 SHL SHR NOT AND PUSH1 0x1 DUP6 SWAP1 SHL OR DUP6 SSTORE PUSH2 0x6F3 JUMP JUMPDEST PUSH1 0x0 DUP6 DUP2 MSTORE PUSH1 0x20 DUP2 KECCAK256 PUSH1 0x1F NOT DUP7 AND SWAP2 JUMPDEST DUP3 DUP2 LT ISZERO PUSH2 0x1A0B JUMPI DUP9 DUP7 ADD MLOAD DUP3 SSTORE SWAP5 DUP5 ADD SWAP5 PUSH1 0x1 SWAP1 SWAP2 ADD SWAP1 DUP5 ADD PUSH2 0x19EC JUMP JUMPDEST POP DUP6 DUP3 LT ISZERO PUSH2 0x1A29 JUMPI DUP8 DUP6 ADD MLOAD PUSH1 0x0 NOT PUSH1 0x3 DUP9 SWAP1 SHL PUSH1 0xF8 AND SHR NOT AND DUP2 SSTORE JUMPDEST POP POP POP POP POP PUSH1 0x1 SWAP1 DUP2 SHL ADD SWAP1 SSTORE POP JUMP JUMPDEST PUSH1 0x60 DUP2 MSTORE PUSH1 0x0 PUSH2 0x1A4C PUSH1 0x60 DUP4 ADD DUP7 PUSH2 0x1501 JUMP JUMPDEST DUP3 DUP2 SUB PUSH1 0x20 DUP5 ADD MSTORE PUSH2 0x1A5E DUP2 DUP7 PUSH2 0x1501 JUMP JUMPDEST SWAP2 POP POP DUP3 PUSH1 0x40 DUP4 ADD MSTORE SWAP5 SWAP4 POP POP POP POP JUMP JUMPDEST PUSH1 0x20 DUP1 DUP3 MSTORE PUSH1 0x2C SWAP1 DUP3 ADD MSTORE PUSH32 0x49737375657252656769737472793A204C696D6974206D757374206265206772 PUSH1 0x40 DUP3 ADD MSTORE PUSH12 0x6561746572207468616E203 PUSH1 0xA4 SHL PUSH1 0x60 DUP3 ADD MSTORE PUSH1 0x80 ADD SWAP1 JUMP JUMPDEST PUSH1 0x20 DUP1 DUP3 MSTORE PUSH1 0x29 SWAP1 DUP3 ADD MSTORE PUSH32 0x49737375657252656769737472793A20537461727420696E646578206F757420 PUSH1 0x40 DUP3 ADD MSTORE PUSH9 0x6F6620626F756E6473 PUSH1 0xB8 SHL PUSH1 0x60 DUP3 ADD MSTORE PUSH1 0x80 ADD SWAP1 JUMP JUMPDEST PUSH4 0x4E487B71 PUSH1 0xE0 SHL PUSH1 0x0 MSTORE PUSH1 0x11 PUSH1 0x4 MSTORE PUSH1 0x24 PUSH1 0x0 REVERT JUMPDEST DUP1 DUP3 ADD DUP1 DUP3 GT ISZERO PUSH2 0x55F JUMPI PUSH2 0x55F PUSH2 0x1B04 JUMP JUMPDEST DUP2 DUP2 SUB DUP2 DUP2 GT ISZERO PUSH2 0x55F JUMPI PUSH2 0x55F PUSH2 0x1B04 JUMP JUMPDEST PUSH4 0x4E487B71 PUSH1 0xE0 SHL PUSH1 0x0 MSTORE PUSH1 0x32 PUSH1 0x4 MSTORE PUSH1 0x24 PUSH1 0x0 REVERT JUMPDEST PUSH1 0x0 PUSH1 0x1 DUP3 ADD PUSH2 0x1B68 JUMPI PUSH2 0x1B68 PUSH2 0x1B04 JUMP JUMPDEST POP PUSH1 0x1 ADD SWAP1 JUMP INVALID LOG2 PUSH5 0x6970667358 0x22 SLT KECCAK256 LOG2 0xBA LT 0x2F 0x2F LOG1 SELFDESTRUCT 0xFC 0xEF REVERT 0x2D 0xB1 0xC8 ADDRESS 0xAE PUSH4 0xAF685EFF DUP8 DUP9 ADD 0x2C 0x25 0xFC 0x4C SGT 0xE8 EQ PUSH4 0x8064736F PUSH13 0x63430008130033000000000000 ",
  "sha1": "e69dd9a3e0f9fe160783503b8896fe60581e28c0",
  "source": "// SPDX-License-Identifier: MIT\npragma solidity ^0.8.19;\n\nimport \"@openzeppelin/contracts/access/Ownable.sol\";\nimport \"@openzeppelin/contracts/security/ReentrancyGuard.sol\";\nimport \"@openzeppelin/contracts/utils/Strings.sol\";\n\ncontract IssuerRegistry is Ownable, ReentrancyGuard{\n    using Strings for uint256;\n\n    struct Issuer{\n        string name;\n        string location;\n        uint256 registrationTime;\n        bool isActive;\n        uint256 totalCertificatesIssued;\n    }\n\n    mapping(address => Issuer) private issuers;\n    address[] private issuerAddresses;\n    mapping(address => bool) private isRegistered;\n    uint256 private totalIssuers;\n\n    event IssuerRegistered(address indexed issuerAddress, string name, string location, uint256 timestamp);\n    event IssuerUpdated(address indexed IssuerAddress, string name, string location, uint256 timestamp);\n    event IssuerDeactivated(address indexed issuerAddress, uint256 timestamp);\n    event IssuerReactivated(address indexed issuerAddress, uint256 timestamp);\n    event CertificateCountUpdated(address indexed issuerAddress, uint256 newCount);\n\n    modifier onlyRegisteredIssuer(){\n        require(isRegistered[msg.sender], \"IssuerRegistry: Caller is not a registered\");\n        require(issuers[msg.sender].isActive, \"IssuerRegistry: Issuer is not active\");\n        _;\n    }\n    modifier validAddress(address _address){\n        require(_address != address(0), \"IssuerRegistry: Invalid address\");\n        _;\n    }\n    modifier validString(string memory _str){\n        require(bytes(_str).length > 0, \"IssuerRegistry: String cannot be empty\");\n        require(bytes(_str).length <= 200, \"IssuerRegistry: String too long\");\n        _;\n    }\n\n    constructor(){}\n\n    function registerIssuer(address _issuerAddress, string memory _name, string memory _location)\n        external onlyOwner\n        validAddress(_issuerAddress)\n        validString(_name)\n        validString(_location)\n        nonReentrant{\n            require(!isRegistered[_issuerAddress], \"IssuerRegistry: Issuer already registered.\");\n            issuers[_issuerAddress] = Issuer({\n                name: _name,\n                location: _location,\n                registrationTime: block.timestamp,\n                isActive: true,\n                totalCertificatesIssued: 0\n            });\n\n            isRegistered[_issuerAddress] = true;\n            issuerAddresses.push(_issuerAddress);\n            totalIssuers++;\n\n            emit IssuerRegistered(_issuerAddress, _name, _location, block.timestamp);\n        }\n\n    function updateIssuer(address _issuerAddress, string memory _name, string memory _location)\n        external onlyOwner\n        validAddress(_issuerAddress)\n        validString(_name)\n        validString(_location)\n        nonReentrant{\n        require(isRegistered[_issuerAddress], \"IssuerRegistry: Issuer not registered.\");\n\n        issuers[_issuerAddress].name = _name;\n        issuers[_issuerAddress].location = _location;\n\n        emit IssuerUpdated(_issuerAddress, _name, _location, block.timestamp);\n    }\n\n    function deactivateIssuer(address _issuerAddress)\n        external onlyOwner validAddress(_issuerAddress) nonReentrant{\n        require(isRegistered[_issuerAddress], \"IssuerRegistry: Issuer not registered.\");\n        require(issuers[_issuerAddress].isActive, \"IssuerRegistry: Issuer is already inactive.\");\n\n        issuers[_issuerAddress].isActive = false;\n        emit IssuerDeactivated(_issuerAddress, block.timestamp);\n    }\n\n\n    function reactivateIssuer(address _issuerAddress)\n        external onlyOwner validAddress(_issuerAddress) nonReentrant{\n        require(isRegistered[_issuerAddress], \"IssuerRegistry: Issuer not registered.\");\n        require(!issuers[_issuerAddress].isActive, \"IssuerRegistry: Issuer is already active\");\n\n        issuers[_issuerAddress].isActive = true;\n        emit IssuerReactivated(_issuerAddress, block.timestamp);\n    }\n\n    function incrementCertificateCount(address _issuerAddress) external validAddress(_issuerAddress){\n        require(isRegistered[_issuerAddress], \"IssuerRegistry: Issuer not registered\");\n        issuers[_issuerAddress].totalCertificatesIssued++;\n        emit CertificateCountUpdated(_issuerAddress, issuers[_issuerAddress].totalCertificatesIssued);\n    }\n\n\n    function isRegisteredIssuer(address _issuerAddress) external view  returns (bool){\n        return isRegistered[_issuerAddress] && issuers[_issuerAddress].isActive;\n    }\n\n    function isAddressRegistered(address _issuerAddress)external view  returns (bool){\n        return isRegistered[_issuerAddress];\n    }\n\n    function getIssuerInfo(address _issuerAddress) external view validAddress(_issuerAddress)\n        returns (string memory name, string memory location, uint256 registrationTime, bool isActive, uint256 totalCertificatesIssued){\n        require(isRegistered[_issuerAddress], \"IssuerRegistry: Address not registered\");\n        Issuer memory issuer = issuers[_issuerAddress];\n        return (\n            issuer.name,\n            issuer.location,\n            issuer.registrationTime,\n            issuer.isActive,\n            issuer.totalCertificatesIssued\n        );\n    }\n\n    function getIssuerName(address _issuerAddress) external view validAddress(_issuerAddress) returns (string memory){\n        require(isRegistered[_issuerAddress],\"IssuerRegistry: Issuer not registered\");\n        return issuers[_issuerAddress].name;\n    }\n\n    function getTotalIssuers() external view returns (uint256){\n        return totalIssuers;\n    }\n\n    function getAllIssuers(uint256 _start, uint256 _limit)external view returns (address[] memory addresses, bool hasMore){\n        require(_limit >0, \"IssuerRegistry: Limit must be greater than 0\");\n        require(_start < issuerAddresses.length, \"IssuerRegistry: Start index out of bounds\");\n        uint256 end = _start + _limit;\n        if(end>issuerAddresses.length){\n            end = issuerAddresses.length;\n        }\n        addresses = new address[](end - _start);\n        for(uint256 i = _start;i<end;i++){\n            addresses[i - _start] = issuerAddresses[i];\n        }\n        hasMore = end < issuerAddresses.length;\n    }\n\n    function getActiveIssuers(uint256 _start, uint256 _limit) external view returns (address[] memory addresses, string[] memory names, bool hasMore){\n        require(_limit > 0, \"IssuerRegistry: Limit must be greater than 0\");\n\n        uint256 activeCount = 0;\n        for (uint256 i = 0; i < issuerAddresses.length; i++) {\n            if (issuers[issuerAddresses[i]].isActive) {\n                activeCount++;\n            }\n        }\n        require(_start < activeCount, \"IssuerRegistry: Start index out of bounds\");\n\n        uint256 end = _start + _limit;\n        if (end > activeCount) {\n            end = activeCount;\n        }\n\n        addresses = new address[](end - _start);\n        names = new string[](end - _start);\n\n        uint256 activeIndex = 0;\n        uint256 resultIndex = 0;\n\n        for (uint256 i = 0; i < issuerAddresses.length && resultIndex < (end - _start); i++) {\n            if (issuers[issuerAddresses[i]].isActive) {\n                if (activeIndex >= _start) {\n                    addresses[resultIndex] = issuerAddresses[i];\n                    names[resultIndex] = issuers[issuerAddresses[i]].name;\n                    resultIndex++;\n                }\n                activeIndex++;\n            }\n        }\n\n        hasMore = end < activeCount;\n    }\n\n    function getContractStats() external view returns (uint256 totalRegistered, uint256 totalActive, uint256 totalCertificates){\n        totalRegistered = totalIssuers;\n        uint256 activeCount = 0;\n        uint256 certificatesCount = 0;\n\n        for(uint256 i=0; i<issuerAddresses.length;i++){\n            address issuerAdd = issuerAddresses[i];\n            if(issuers[issuerAdd].isActive){\n                activeCount++;\n            }\n            certificatesCount += issuers[issuerAdd].totalCertificatesIssued;\n        }\n        totalActive = activeCount;\n        totalCertificates = certificatesCount;\n\n    }\n}",
  "sourcePath": "contracts/IssuerRegistry.sol",
  "type": "contract"
}